BL51 BANKED LINKER/LOCATER V6.22.4.0                                                    05/10/2024  15:28:54  PAGE 1


BL51 BANKED LINKER/LOCATER V6.22.4.0, INVOKED BY:
D:\KEIL_V5\C51\BIN\BL51.EXE .\Objects\Conf_tny.obj, .\Objects\main.obj, .\Objects\App_Bluetooth.obj, .\Objects\App_Track
>> er.obj, .\Objects\App_Ultrasonic.obj, .\Objects\App_Battery_Detection.obj, .\Objects\Delay.obj, .\Objects\GPIO.obj, .
>> \Objects\NVIC.obj, .\Objects\UART_Isr.obj, .\Objects\ADC.obj, .\Objects\ADC_Isr.obj, .\Objects\STC8H_PWM.obj, .\Objec
>> ts\UART.obj, .\Objects\Light.obj, .\Objects\Key.obj, .\Objects\Battery.obj, .\Objects\Buzzer.obj, .\Objects\Ultrasoni
>> c.obj, .\Objects\Motors.obj, .\Objects\Tracker.obj TO .\Objects\project RTX51TINY PRINT (.\Listings\project.m51) RAMS
>> IZE (256) DISABLEWARNING (16, 15)


MEMORY MODEL: LARGE WITH FLOATING POINT ARITHMETIC


INPUT MODULES INCLUDED:
  .\Objects\Conf_tny.obj (?RTX51_TINY_KERNAL)
  .\Objects\main.obj (MAIN)
  .\Objects\App_Bluetooth.obj (APP_BLUETOOTH)
  .\Objects\App_Tracker.obj (APP_TRACKER)
  .\Objects\App_Ultrasonic.obj (APP_ULTRASONIC)
  .\Objects\App_Battery_Detection.obj (APP_BATTERY_DETECTION)
  .\Objects\Delay.obj (DELAY)
  .\Objects\GPIO.obj (GPIO)
  .\Objects\NVIC.obj (NVIC)
  .\Objects\UART_Isr.obj (UART_ISR)
  .\Objects\ADC.obj (ADC)
  .\Objects\ADC_Isr.obj (ADC_ISR)
  .\Objects\STC8H_PWM.obj (STC8H_PWM)
  .\Objects\UART.obj (UART)
  .\Objects\Light.obj (LIGHT)
  .\Objects\Key.obj (KEY)
  .\Objects\Battery.obj (BATTERY)
  .\Objects\Buzzer.obj (BUZZER)
  .\Objects\Ultrasonic.obj (ULTRASONIC)
  .\Objects\Motors.obj (MOTORS)
  .\Objects\Tracker.obj (TRACKER)
  D:\KEIL_V5\C51\LIB\RTX51TNY.LIB (?RTX51_TINY_OS_CREATE)
  D:\KEIL_V5\C51\LIB\RTX51TNY.LIB (?RTX51_TINY_OS_DELETE)
  D:\KEIL_V5\C51\LIB\RTX51TNY.LIB (?RTX51_TINY_OS_WAIT)
  D:\KEIL_V5\C51\LIB\C51FPL.LIB (?C?FPMUL)
  D:\KEIL_V5\C51\LIB\C51FPL.LIB (?C?FPDIV)
  D:\KEIL_V5\C51\LIB\C51FPL.LIB (?C?FPCMP)
  D:\KEIL_V5\C51\LIB\C51FPL.LIB (?C?FCAST)
  D:\KEIL_V5\C51\LIB\C51FPL.LIB (?C?CASTF)
  D:\KEIL_V5\C51\LIB\C51FPL.LIB (PRINTF)
  D:\KEIL_V5\C51\LIB\C51FPL.LIB (?C?FPGETOPN)
  D:\KEIL_V5\C51\LIB\C51FPL.LIB (?C?FPROUND)
  D:\KEIL_V5\C51\LIB\C51FPL.LIB (?C?FPCONVERT)
  D:\KEIL_V5\C51\LIB\C51FPL.LIB (?C?FPADD)
  D:\KEIL_V5\C51\LIB\C51FPL.LIB (?C?FTNPWR)
  D:\KEIL_V5\C51\LIB\C51L.LIB (?C_STARTUP)
  D:\KEIL_V5\C51\LIB\C51L.LIB (?C?COPY)
  D:\KEIL_V5\C51\LIB\C51L.LIB (?C?CLDPTR)
  D:\KEIL_V5\C51\LIB\C51L.LIB (?C?CLDOPTR)
  D:\KEIL_V5\C51\LIB\C51L.LIB (?C?CSTPTR)
  D:\KEIL_V5\C51\LIB\C51L.LIB (?C?CSTOPTR)
  D:\KEIL_V5\C51\LIB\C51L.LIB (?C?IMUL)
  D:\KEIL_V5\C51\LIB\C51L.LIB (?C?UIDIV)
  D:\KEIL_V5\C51\LIB\C51L.LIB (?C?SIDIV)
  D:\KEIL_V5\C51\LIB\C51L.LIB (?C?ILDPTR)
BL51 BANKED LINKER/LOCATER V6.22.4.0                                                  05/10/2024  15:28:54  PAGE 2


  D:\KEIL_V5\C51\LIB\C51L.LIB (?C?ILDOPTR)
  D:\KEIL_V5\C51\LIB\C51L.LIB (?C?LMUL)
  D:\KEIL_V5\C51\LIB\C51L.LIB (?C?ULDIV)
  D:\KEIL_V5\C51\LIB\C51L.LIB (?C?SLDIV)
  D:\KEIL_V5\C51\LIB\C51L.LIB (?C?LNEG)
  D:\KEIL_V5\C51\LIB\C51L.LIB (?C?ULCMP)
  D:\KEIL_V5\C51\LIB\C51L.LIB (?C?ULSHR)
  D:\KEIL_V5\C51\LIB\C51L.LIB (?C?LSTPTR)
  D:\KEIL_V5\C51\LIB\C51L.LIB (?C?LLDOPTR0)
  D:\KEIL_V5\C51\LIB\C51L.LIB (?C?LSTXDATA)
  D:\KEIL_V5\C51\LIB\C51L.LIB (?C?LSTKXDATA)
  D:\KEIL_V5\C51\LIB\C51L.LIB (?C?PLDIXDATA)
  D:\KEIL_V5\C51\LIB\C51L.LIB (?C?PSTXDATA)
  D:\KEIL_V5\C51\LIB\C51L.LIB (?C?CCASE)
  D:\KEIL_V5\C51\LIB\C51L.LIB (?C_INIT)
  D:\KEIL_V5\C51\LIB\C51L.LIB (?C?LLDIDATA0)
  D:\KEIL_V5\C51\LIB\C51L.LIB (?C?LLDXDATA0)
  D:\KEIL_V5\C51\LIB\C51L.LIB (?C?LLDPDATA0)
  D:\KEIL_V5\C51\LIB\C51L.LIB (?C?LLDCODE0)
  D:\KEIL_V5\C51\LIB\C51L.LIB (?C?LSTIDATA)
  D:\KEIL_V5\C51\LIB\C51L.LIB (?C?LSTPDATA)


TASK TABLE OF MODULE:  .\Objects\project (?RTX51_TINY_KERNAL)

TASKID   PRIORITY   REG-BANK   SEGMENT NAME
-------------------------------------------
0        0          0          ?PR?START_MAIN?MAIN
1        0          0          ?PR?TASK1?MAIN
2        0          0          ?PR?TASK_TRACKER?APP_TRACKER
3        0          0          ?PR?TASK_UART1?MAIN
4        0          0          ?PR?TASK_BLUETOOTH?APP_BLUETOOTH
5        0          0          ?PR?TASK_ULTRASONIC?APP_ULTRASONIC
6        0          0          ?PR?TASK_BATTERY?APP_BATTERY_DETECTION



LINK MAP OF MODULE:  .\Objects\project (?RTX51_TINY_KERNAL)


            TYPE    BASE      LENGTH    RELOCATION   SEGMENT NAME
            -----------------------------------------------------

            * * * * * * *   D A T A   M E M O R Y   * * * * * * *
            REG     0000H     0008H     ABSOLUTE     "REG BANK 0"
            DATA    0008H     0006H     ABSOLUTE     
            DATA    000EH     000FH     UNIT         _DATA_GROUP_
            DATA    001DH     0002H     UNIT         ?DT?DELAY100US?BUZZER
                    001FH     0001H                  *** GAP ***
            BIT     0020H.0   0003H.3   UNIT         _BIT_GROUP_
            BIT     0023H.3   0000H.1   UNIT         ?RTX?BITS
                    0023H.4   0000H.4                *** GAP ***
            IDATA   0024H     000EH     UNIT         ?RTX?TASKSTATE?S
            IDATA   0032H     0007H     UNIT         ?RTX?TASKSP?S
            IDATA   0039H     0001H     UNIT         ?STACK

            * * * * * * *  X D A T A   M E M O R Y  * * * * * * *
BL51 BANKED LINKER/LOCATER V6.22.4.0                                                  05/10/2024  15:28:54  PAGE 3


            XDATA   0000H     02D4H     UNIT         ?XD?UART
            XDATA   02D4H     010BH     UNIT         _XDATA_GROUP_
            XDATA   03DFH     0014H     UNIT         ?XD?MOTORS
            XDATA   03F3H     0010H     UNIT         ?XD?BUZZER
            XDATA   0403H     000CH     UNIT         ?XD?_MOTORS_LEFT?MOTORS
            XDATA   040FH     000CH     UNIT         ?XD?_MOTORS_RIGHT?MOTORS
            XDATA   041BH     000AH     UNIT         ?XD?_MOTORS_BACKWARD?MOTORS
            XDATA   0425H     0005H     UNIT         ?XD?MAIN
            XDATA   042AH     0005H     UNIT         ?XD?APP_ULTRASONIC
            XDATA   042FH     0004H     UNIT         ?XD?APP_BLUETOOTH
            XDATA   0433H     0004H     UNIT         ?XD?APP_BATTERY_DETECTION
            XDATA   0437H     0002H     UNIT         ?XD?TRACKER
            XDATA   0439H     0001H     UNIT         ?XD?KEY

            * * * * * * *   C O D E   M E M O R Y   * * * * * * *
            CODE    0000H     0003H     ABSOLUTE     
            CODE    0003H     0008H     UNIT         ?PR?KEY_ON_KEYDOWN?MAIN
            CODE    000BH     0003H     ABSOLUTE     
            CODE    000EH     0015H     UNIT         ?PR?GPIO_CONFIG?BATTERY
            CODE    0023H     0003H     ABSOLUTE     
            CODE    0026H     0005H     UNIT         ?PR?KEY_ON_KEYUP?MAIN
            CODE    002BH     0003H     ABSOLUTE     
            CODE    002EH     0015H     UNIT         ?PR?_SPEED2DUTY?MOTORS
            CODE    0043H     0003H     ABSOLUTE     
            CODE    0046H     0045H     UNIT         ?CO?APP_BATTERY_DETECTION
            CODE    008BH     0003H     ABSOLUTE     
            CODE    008EH     0005H     UNIT         ?PR?_PUTCHAR?UART
            CODE    0093H     0003H     ABSOLUTE     
            CODE    0096H     0A62H     UNIT         ?C?LIB_CODE
            CODE    0AF8H     0653H     UNIT         ?PR?_UART_CONFIGURATION?UART
            CODE    114BH     0483H     UNIT         ?PR?PRINTF?PRINTF
            CODE    15CEH     0412H     UNIT         ?PR?_PWM_CONFIGURATION?STC8H_PWM
            CODE    19E0H     02E3H     UNIT         ?RTX?CODE
            CODE    1CC3H     0254H     UNIT         ?PR?_GPIO_INILIZE?GPIO
            CODE    1F17H     0210H     UNIT         ?PR?PWM_CONFIG?MOTORS
            CODE    2127H     01A6H     UNIT         ?PR?_DO_CONTROL_ACTION?APP_BLUETOOTH
            CODE    22CDH     014DH     UNIT         ?PR?_UPDATEPWM?STC8H_PWM
            CODE    241AH     0139H     UNIT         ?PR?_ULTRASONIC_GET_DISTANCE?ULTRASONIC
            CODE    2553H     011DH     UNIT         ?PR?_MOTORS_MOVE?MOTORS
            CODE    2670H     00ACH     UNIT         ?PR?TASK_ULTRASONIC?APP_ULTRASONIC
            CODE    271CH     009BH     UNIT         ?PR?TASK_TRACKER?APP_TRACKER
            CODE    27B7H     0098H     UNIT         ?PR?_MOTORS_LEFT?MOTORS
            CODE    284FH     0092H     UNIT         ?PR?_MOTORS_AROUND?MOTORS
            CODE    28E1H     008FH     UNIT         ?PR?_MOTORS_RIGHT?MOTORS
            CODE    2970H     008CH     UNIT         ?C_C51STARTUP
            CODE    29FCH     007FH     UNIT         ?PR?_NVIC_PWM_INIT?NVIC
            CODE    2A7BH     0078H     UNIT         ?PR?_GET_ADCRESULT?ADC
            CODE    2AF3H     006CH     UNIT         ?PR?ON_UART1_RECV?MAIN
            CODE    2B5FH     0065H     UNIT         ?PR?DO_CONTROL?APP_BLUETOOTH
            CODE    2BC4H     0065H     UNIT         ?PR?TASK_BATTERY?APP_BATTERY_DETECTION
            CODE    2C29H     0063H     UNIT         ?PR?TRACKER_GET_POSITION?TRACKER
            CODE    2C8CH     005DH     UNIT         ?PR?_NVIC_I2C_INIT?NVIC
            CODE    2CE9H     005CH     UNIT         ?PR?_PWM_CONFIG?BUZZER
            CODE    2D45H     0058H     UNIT         ?PR?TASK_BLUETOOTH?APP_BLUETOOTH
            CODE    2D9DH     0057H     UNIT         ?PR?_MOTORS_BACKWARD?MOTORS
            CODE    2DF4H     0055H     UNIT         ?PR?_ADC_INILIZE?ADC
            CODE    2E49H     0055H     UNIT         ?PR?BATTERY_GET_VOLTAGE?BATTERY
BL51 BANKED LINKER/LOCATER V6.22.4.0                                                  05/10/2024  15:28:54  PAGE 4


            CODE    2E9EH     0053H     UNIT         ?PR?_CLIP?MOTORS
            CODE    2EF1H     0052H     UNIT         ?PR?TASK_UART1?MAIN
            CODE    2F43H     0052H     UNIT         ?PR?UART2_ISR_HANDLER?UART_ISR
            CODE    2F95H     0052H     UNIT         ?PR?UART3_ISR_HANDLER?UART_ISR
            CODE    2FE7H     0052H     UNIT         ?PR?UART4_ISR_HANDLER?UART_ISR
            CODE    3039H     004CH     UNIT         ?PR?UART1_ISR_HANDLER?UART_ISR
            CODE    3085H     004BH     UNIT         ?PR?_NVIC_CMP_INIT?NVIC
            CODE    30D0H     004AH     UNIT         ?PR?_NVIC_UART3_INIT?NVIC
            CODE    311AH     0048H     UNIT         ?PR?_NVIC_UART4_INIT?NVIC
            CODE    3162H     0047H     UNIT         ?PR?_NVIC_SPI_INIT?NVIC
            CODE    31A9H     0047H     UNIT         ?PR?_BUZZER_PLAY?BUZZER
            CODE    31F0H     0044H     UNIT         ?C?LDIV
            CODE    3234H     0043H     UNIT         ?PR?_NVIC_UART2_INIT?NVIC
            CODE    3277H     0041H     UNIT         ?PR?_NVIC_TIMER0_INIT?NVIC
            CODE    32B8H     0041H     UNIT         ?PR?_NVIC_TIMER1_INIT?NVIC
            CODE    32F9H     0041H     UNIT         ?PR?_NVIC_INT0_INIT?NVIC
            CODE    333AH     0041H     UNIT         ?PR?_NVIC_INT1_INIT?NVIC
            CODE    337BH     0041H     UNIT         ?PR?_NVIC_ADC_INIT?NVIC
            CODE    33BCH     0041H     UNIT         ?PR?_NVIC_UART1_INIT?NVIC
            CODE    33FDH     003AH     UNIT         ?PR?_NVIC_RTC_INIT?NVIC
            CODE    3437H     0032H     UNIT         ?C_INITSEG
            CODE    3469H     0031H     UNIT         ?PR?UART_CONFIG?MAIN
            CODE    349AH     0031H     UNIT         ?PR?UART2_CONFIG?APP_BLUETOOTH
            CODE    34CBH     0030H     UNIT         ?CO?ULTRASONIC
            CODE    34FBH     0030H     UNIT         ?PR?_MOTORS_FORWARD?MOTORS
            CODE    352BH     002FH     UNIT         ?CO?APP_BLUETOOTH
            CODE    355AH     002CH     UNIT         ?PR?GPIO_CONFIG?APP_BLUETOOTH
            CODE    3586H     002AH     UNIT         ?CO?APP_ULTRASONIC
            CODE    35B0H     0029H     UNIT         ?PR?ADC_CONFIG?BATTERY
            CODE    35D9H     0028H     UNIT         ?PR?MOTORS_STOP?MOTORS
            CODE    3601H     0028H     UNIT         ?CO?MOTORS
            CODE    3629H     0023H     UNIT         ?PR?_NVIC_TIMER4_INIT?NVIC
            CODE    364CH     0022H     UNIT         ?PR?_NVIC_TIMER2_INIT?NVIC
            CODE    366EH     0022H     UNIT         ?PR?_NVIC_TIMER3_INIT?NVIC
            CODE    3690H     0020H     UNIT         ?PR?ISLOWPOWER?APP_BATTERY_DETECTION
            CODE    36B0H     001CH     UNIT         ?PR?START_MAIN?MAIN
            CODE    36CCH     001BH     UNIT         ?PR?KEY_SCAN?KEY
            CODE    36E7H     001BH     UNIT         ?PR?_TRACKER_SCAN?TRACKER
            CODE    3702H     001AH     UNIT         ?PR?_NVIC_INT4_INIT?NVIC
            CODE    371CH     0019H     UNIT         ?PR?_NVIC_INT3_INIT?NVIC
            CODE    3735H     0018H     UNIT         ?PR?_NVIC_INT2_INIT?NVIC
            CODE    374DH     0017H     UNIT         ?PR?_DELAY_MS?DELAY
            CODE    3764H     0016H     UNIT         ?PR?GPIO_CONFIG?MAIN
            CODE    377AH     0016H     UNIT         ?PR?_LIGHT_ON?LIGHT
            CODE    3790H     0016H     UNIT         ?PR?_LIGHT_OFF?LIGHT
            CODE    37A6H     0014H     UNIT         ?PR?SYS_INIT?MAIN
            CODE    37BAH     0014H     UNIT         ?PR?BUZZER_BEEP?BUZZER
            CODE    37CEH     0013H     UNIT         ?PR?_PRINTSTRING1?UART
            CODE    37E1H     0013H     UNIT         ?PR?_PRINTSTRING2?UART
            CODE    37F4H     0013H     UNIT         ?PR?_PRINTSTRING3?UART
            CODE    3807H     0013H     UNIT         ?PR?_PRINTSTRING4?UART
            CODE    381AH     0013H     UNIT         ?PR?_GPIO_CONFIG?KEY
            CODE    382DH     0011H     UNIT         ?PR?LIGHT_INIT?LIGHT
            CODE    383EH     0011H     UNIT         ?PR?ULTRASONIC_INIT?ULTRASONIC
            CODE    384FH     000FH     UNIT         ?PR?TASK1?MAIN
            CODE    385EH     000FH     UNIT         ?PR?_TX1_WRITE2BUFF?UART
            CODE    386DH     000FH     UNIT         ?PR?_TX2_WRITE2BUFF?UART
BL51 BANKED LINKER/LOCATER V6.22.4.0                                                  05/10/2024  15:28:54  PAGE 5


            CODE    387CH     000FH     UNIT         ?PR?_TX3_WRITE2BUFF?UART
            CODE    388BH     000FH     UNIT         ?PR?_TX4_WRITE2BUFF?UART
            CODE    389AH     000EH     UNIT         ?RTX?TASKENT?S
            CODE    38A8H     000EH     UNIT         ?PR?BUZZER_INIT?BUZZER
            CODE    38B6H     000DH     UNIT         ?PR?DELAY100US?BUZZER
            CODE    38C3H     000DH     UNIT         ?PR?MOTORS_INIT?MOTORS
            CODE    38D0H     000CH     UNIT         ?PR?BT_ENABLE?APP_BLUETOOTH
            CODE    38DCH     000CH     UNIT         ?PR?_ADC_POWERCONTROL?ADC
            CODE    38E8H     000BH     UNIT         ?PR?_DELAY_S?DELAY
            CODE    38F3H     000AH     UNIT         ?PR?KEY_INIT?KEY
            CODE    38FDH     0007H     UNIT         ?PR?DELAY10US?ULTRASONIC
            CODE    3904H     0007H     UNIT         ?PR?TRACKER_INIT?TRACKER
            CODE    390BH     0006H     UNIT         ?PR?BATTERY_INIT?BATTERY
            CODE    3911H     0005H     UNIT         ?PR?BUZZER_OPEN?BUZZER
            CODE    3916H     0005H     UNIT         ?PR?BUZZER_CLOSE?BUZZER
            CODE    391BH     0004H     UNIT         ?PR?ADC_ISR_HANDLER?ADC_ISR



OVERLAY MAP OF MODULE:   .\Objects\project (?RTX51_TINY_KERNAL)


SEGMENT                                            BIT_GROUP          DATA_GROUP          XDATA_GROUP
  +--> CALLED SEGMENT                           START    LENGTH     START    LENGTH     START    LENGTH
-------------------------------------------------------------------------------------------------------
?PR?START_MAIN?MAIN                             -----    -----      -----    -----      -----    -----
  +--> ?PR?SYS_INIT?MAIN

?PR?SYS_INIT?MAIN                               -----    -----      -----    -----      -----    -----
  +--> ?PR?GPIO_CONFIG?MAIN
  +--> ?PR?UART_CONFIG?MAIN
  +--> ?PR?LIGHT_INIT?LIGHT
  +--> ?PR?BUZZER_INIT?BUZZER
  +--> ?PR?MOTORS_INIT?MOTORS

?PR?GPIO_CONFIG?MAIN                            -----    -----      -----    -----      02D4H    0002H
  +--> ?PR?_GPIO_INILIZE?GPIO

?PR?UART_CONFIG?MAIN                            -----    -----      -----    -----      02D4H    0009H
  +--> ?PR?_UART_CONFIGURATION?UART
  +--> ?PR?_NVIC_UART1_INIT?NVIC

?PR?_UART_CONFIGURATION?UART                    -----    -----      -----    -----      0318H    000AH

?PR?LIGHT_INIT?LIGHT                            -----    -----      -----    -----      -----    -----
  +--> ?PR?_LIGHT_OFF?LIGHT

?PR?BUZZER_INIT?BUZZER                          -----    -----      -----    -----      -----    -----
  +--> ?PR?_PWM_CONFIG?BUZZER

?PR?_PWM_CONFIG?BUZZER                          -----    -----      -----    -----      03B3H    0009H
  +--> ?PR?_PWM_CONFIGURATION?STC8H_PWM
  +--> ?PR?_NVIC_PWM_INIT?NVIC

*** NEW ROOT ***************************************************

?PR?TASK1?MAIN                                  -----    -----      -----    -----      -----    -----
BL51 BANKED LINKER/LOCATER V6.22.4.0                                                  05/10/2024  15:28:54  PAGE 6


  +--> ?PR?KEY_INIT?KEY
  +--> ?PR?KEY_SCAN?KEY

?PR?KEY_INIT?KEY                                -----    -----      -----    -----      -----    -----
  +--> ?PR?_GPIO_CONFIG?KEY

?PR?_GPIO_CONFIG?KEY                            -----    -----      -----    -----      02E7H    0002H
  +--> ?PR?_GPIO_INILIZE?GPIO

?PR?KEY_SCAN?KEY                                -----    -----      -----    -----      -----    -----
  +--> ?PR?KEY_ON_KEYUP?MAIN
  +--> ?PR?KEY_ON_KEYDOWN?MAIN

?PR?KEY_ON_KEYUP?MAIN                           -----    -----      -----    -----      -----    -----
  +--> ?PR?_LIGHT_OFF?LIGHT

?PR?KEY_ON_KEYDOWN?MAIN                         -----    -----      -----    -----      -----    -----
  +--> ?PR?_LIGHT_ON?LIGHT
  +--> ?PR?BT_ENABLE?APP_BLUETOOTH

*** NEW ROOT ***************************************************

?PR?TASK_UART1?MAIN                             -----    -----      -----    -----      02E9H    0001H
  +--> ?PR?ON_UART1_RECV?MAIN
  +--> ?PR?_TX2_WRITE2BUFF?UART

?PR?ON_UART1_RECV?MAIN                          -----    -----      -----    -----      -----    -----
  +--> ?PR?_LIGHT_ON?LIGHT
  +--> ?PR?_LIGHT_OFF?LIGHT
  +--> ?PR?_BUZZER_PLAY?BUZZER
  +--> ?PR?MOTORS_STOP?MOTORS
  +--> ?PR?_MOTORS_FORWARD?MOTORS

?PR?_BUZZER_PLAY?BUZZER                         -----    -----      -----    -----      03AFH    0004H
  +--> ?PR?BUZZER_OPEN?BUZZER
  +--> ?PR?BUZZER_CLOSE?BUZZER

?PR?BUZZER_OPEN?BUZZER                          -----    -----      -----    -----      -----    -----
  +--> ?PR?_PWM_CONFIG?BUZZER

?PR?BUZZER_CLOSE?BUZZER                         -----    -----      -----    -----      -----    -----
  +--> ?PR?_PWM_CONFIG?BUZZER

?PR?MOTORS_STOP?MOTORS                          -----    -----      -----    -----      0349H    0008H
  +--> ?PR?PWM_CONFIG?MOTORS

?PR?PWM_CONFIG?MOTORS                           -----    -----      -----    -----      0355H    001CH
  +--> ?PR?_SPEED2DUTY?MOTORS
  +--> ?PR?_PWM_CONFIGURATION?STC8H_PWM
  +--> ?PR?_NVIC_PWM_INIT?NVIC

?PR?_MOTORS_FORWARD?MOTORS                      -----    -----      -----    -----      0349H    0008H
  +--> ?PR?PWM_CONFIG?MOTORS

*** NEW ROOT ***************************************************

?PR?TASK_BLUETOOTH?APP_BLUETOOTH                -----    -----      -----    -----      030EH    0001H
BL51 BANKED LINKER/LOCATER V6.22.4.0                                                  05/10/2024  15:28:54  PAGE 7


  +--> ?PR?GPIO_CONFIG?APP_BLUETOOTH
  +--> ?PR?UART2_CONFIG?APP_BLUETOOTH
  +--> ?PR?DO_CONTROL?APP_BLUETOOTH
  +--> ?PR?_TX1_WRITE2BUFF?UART

?PR?GPIO_CONFIG?APP_BLUETOOTH                   -----    -----      -----    -----      030FH    0002H
  +--> ?PR?_GPIO_INILIZE?GPIO

?PR?UART2_CONFIG?APP_BLUETOOTH                  -----    -----      -----    -----      030FH    0009H
  +--> ?PR?_UART_CONFIGURATION?UART
  +--> ?PR?_NVIC_UART2_INIT?NVIC

?PR?DO_CONTROL?APP_BLUETOOTH                    -----    -----      -----    -----      030FH    0002H
  +--> ?PR?_DO_CONTROL_ACTION?APP_BLUETOOTH

?PR?_DO_CONTROL_ACTION?APP_BLUETOOTH            -----    -----      -----    -----      0311H    0004H
  +--> ?CO?APP_BLUETOOTH
  +--> ?PR?PRINTF?PRINTF
  +--> ?PR?_LIGHT_ON?LIGHT
  +--> ?PR?_BUZZER_PLAY?BUZZER
  +--> ?PR?_LIGHT_OFF?LIGHT
  +--> ?PR?ISLOWPOWER?APP_BATTERY_DETECTION
  +--> ?PR?_MOTORS_AROUND?MOTORS
  +--> ?PR?MOTORS_STOP?MOTORS
  +--> ?PR?_MOTORS_MOVE?MOTORS

?PR?PRINTF?PRINTF                               0022H.2  0001H.1    0018H    0005H      03AFH    0030H
  +--> ?PR?_PUTCHAR?UART

?PR?_PUTCHAR?UART                               -----    -----      -----    -----      -----    -----
  +--> ?PR?_TX1_WRITE2BUFF?UART

?PR?_MOTORS_AROUND?MOTORS                       -----    -----      -----    -----      0349H    000CH
  +--> ?CO?MOTORS
  +--> ?PR?PWM_CONFIG?MOTORS

?PR?_MOTORS_MOVE?MOTORS                         -----    -----      -----    -----      0315H    000CH
  +--> ?CO?MOTORS
  +--> ?PR?_CLIP?MOTORS
  +--> ?PR?PWM_CONFIG?MOTORS

?PR?_CLIP?MOTORS                                -----    -----      -----    -----      0321H    0004H

*** NEW ROOT ***************************************************

?PR?TASK_TRACKER?APP_TRACKER                    -----    -----      -----    -----      0345H    0004H
  +--> ?PR?TRACKER_INIT?TRACKER
  +--> ?PR?ISLOWPOWER?APP_BATTERY_DETECTION
  +--> ?PR?MOTORS_STOP?MOTORS
  +--> ?PR?TRACKER_GET_POSITION?TRACKER
  +--> ?PR?_MOTORS_AROUND?MOTORS
  +--> ?PR?_MOTORS_FORWARD?MOTORS

?PR?TRACKER_GET_POSITION?TRACKER                -----    -----      -----    -----      0349H    0002H

*** NEW ROOT ***************************************************

BL51 BANKED LINKER/LOCATER V6.22.4.0                                                  05/10/2024  15:28:54  PAGE 8


?PR?TASK_ULTRASONIC?APP_ULTRASONIC              -----    -----      -----    -----      0371H    0005H
  +--> ?PR?ULTRASONIC_INIT?ULTRASONIC
  +--> ?PR?_ULTRASONIC_GET_DISTANCE?ULTRASONIC
  +--> ?CO?APP_ULTRASONIC
  +--> ?PR?PRINTF?PRINTF
  +--> ?PR?_BUZZER_PLAY?BUZZER

?PR?_ULTRASONIC_GET_DISTANCE?ULTRASONIC         -----    -----      -----    -----      0376H    0009H
  +--> ?PR?DELAY10US?ULTRASONIC
  +--> ?CO?ULTRASONIC
  +--> ?PR?PRINTF?PRINTF

?PR?DELAY10US?ULTRASONIC                        -----    -----      0013H    0001H      -----    -----

*** NEW ROOT ***************************************************

?PR?TASK_BATTERY?APP_BATTERY_DETECTION          -----    -----      -----    -----      -----    -----
  +--> ?PR?BATTERY_INIT?BATTERY
  +--> ?PR?BATTERY_GET_VOLTAGE?BATTERY
  +--> ?CO?APP_BATTERY_DETECTION
  +--> ?PR?PRINTF?PRINTF
  +--> ?PR?ISLOWPOWER?APP_BATTERY_DETECTION
  +--> ?PR?_BUZZER_PLAY?BUZZER

?PR?BATTERY_INIT?BATTERY                        -----    -----      -----    -----      -----    -----
  +--> ?PR?GPIO_CONFIG?BATTERY
  +--> ?PR?ADC_CONFIG?BATTERY

?PR?GPIO_CONFIG?BATTERY                         -----    -----      -----    -----      03AFH    0002H
  +--> ?PR?_GPIO_INILIZE?GPIO

?PR?ADC_CONFIG?BATTERY                          -----    -----      -----    -----      03AFH    0005H
  +--> ?PR?_ADC_INILIZE?ADC
  +--> ?PR?_ADC_POWERCONTROL?ADC
  +--> ?PR?_NVIC_ADC_INIT?NVIC

?PR?BATTERY_GET_VOLTAGE?BATTERY                 -----    -----      -----    -----      03AFH    0004H
  +--> ?PR?_GET_ADCRESULT?ADC

?PR?_GET_ADCRESULT?ADC                          -----    -----      -----    -----      03B3H    0002H

*** NEW ROOT ***************************************************

?C_C51STARTUP                                   -----    -----      -----    -----      -----    -----
  +--> ?C_INITSEG



SYMBOL TABLE OF MODULE:  .\Objects\project (?RTX51_TINY_KERNAL)

  VALUE           TYPE          NAME
  ----------------------------------

  -------         MODULE        ?RTX51_TINY_KERNAL
  C:389AH         SEGMENT       ?RTX?TASKENT?S
  I:0032H         SEGMENT       ?RTX?TASKSP?S
  I:0024H         SEGMENT       ?RTX?TASKSTATE?S
BL51 BANKED LINKER/LOCATER V6.22.4.0                                                  05/10/2024  15:28:54  PAGE 9


  B:0023H.3       SEGMENT       ?RTX?BITS
  C:19E0H         SEGMENT       ?RTX?CODE
  C:1A2FH         PUBLIC        ?RTX?SET_ISR
  D:000CH         PUBLIC        ?RTX_CURRENTTASK
  D:0007H         PUBLIC        ?RTX_NEXTID
  C:1A72H         PUBLIC        ?RTX_NEXTTASK
  N:00FFH         PUBLIC        ?RTX_RAMTOP
  C:389AH         PUBLIC        ?RTX_TASKENTRY
  C:1B51H         PUBLIC        ?RTX_TASKIDX
  I:0032H         PUBLIC        ?RTX_TASKSP
  I:0024H         PUBLIC        ?RTX_TASKSTATUS
  C:1B15H         PUBLIC        MAIN
  C:1A5BH         PUBLIC        OS_SWITCH_TASK
  C:1A64H         SYMBOL        ?C0001
  C:1A6EH         SYMBOL        ?C0003
  C:1A73H         SYMBOL        ?C0005
  C:1A8DH         SYMBOL        ?C0007
  C:1A8FH         SYMBOL        ?C0009
  C:1A99H         SYMBOL        ?C0011
  C:1AC6H         SYMBOL        ?C0012
  C:1AACH         SYMBOL        ?C0013
  C:1AB1H         SYMBOL        ?C0015
  C:1ABCH         SYMBOL        ?C0016
  N:0000H         SYMBOL        ?RTX51_TINY_KERNAL
  N:D8F0H         SYMBOL        ?RTX_CLOCK
  N:0008H         SYMBOL        ?RTX_REGISTERBANK
  D:000DH         SYMBOL        ?RTX_ROBINTIME
  D:000AH         SYMBOL        ?RTX_SAVEACC
  D:000BH         SYMBOL        ?RTX_SAVEPSW
  C:19E0H         SYMBOL        ?RTX_STACKERROR
  C:1A33H         SYMBOL        ?RTX_TASKSWITCHING
  B:0023H.3       SYMBOL        ?RTX_TS_DELAY
  D:00E0H         SYMBOL        ACC
  D:00F0H         SYMBOL        B
  N:0005H         SYMBOL        B_ACTIVE
  N:0007H         SYMBOL        B_IVL
  N:0007H         SYMBOL        B_RDY
  N:0004H         SYMBOL        B_READY
  N:0006H         SYMBOL        B_ROBIN
  N:0002H         SYMBOL        B_SIGNAL
  N:0003H         SYMBOL        B_TIMEOUT
  N:0000H         SYMBOL        B_WAITSIG
  N:0001H         SYMBOL        B_WAITTIM
  C:1A30H         SYMBOL        CHECKROBINTIME
  C:1A0AH         SYMBOL        CHECKSTACK
  N:0000H         SYMBOL        CODE_BANKING
  N:0000H         SYMBOL        CPU_IDLE_CODE
  D:0083H         SYMBOL        DPH
  D:0082H         SYMBOL        DPL
  B:00A8H.7       SYMBOL        EA
  B:00A8H.4       SYMBOL        ES
  B:00A8H.1       SYMBOL        ET0
  B:00A8H.3       SYMBOL        ET1
  B:00A8H.0       SYMBOL        EX0
  B:00A8H.2       SYMBOL        EX1
  N:0014H         SYMBOL        FREE_STACK
  C:19E4H         SYMBOL        HW_TIMER
BL51 BANKED LINKER/LOCATER V6.22.4.0                                                  05/10/2024  15:28:54  PAGE 10


  D:00A8H         SYMBOL        IE
  B:0088H.1       SYMBOL        IE0
  B:0088H.3       SYMBOL        IE1
  N:2710H         SYMBOL        INT_CLOCK
  N:0001H         SYMBOL        INT_REGBANK
  B:0088H.0       SYMBOL        IT0
  B:0088H.2       SYMBOL        IT1
  N:0020H         SYMBOL        K_ACTIVE
  N:0080H         SYMBOL        K_IVL
  N:0080H         SYMBOL        K_RDY
  N:0010H         SYMBOL        K_READY
  N:0040H         SYMBOL        K_ROBIN
  N:0001H         SYMBOL        K_SIG
  N:0002H         SYMBOL        K_TMO
  N:0000H         SYMBOL        LONG_USR_INTR
  C:1B1EH         SYMBOL        MAIN1
  C:1B28H         SYMBOL        MAIN1X
  C:1B23H         SYMBOL        MAIN2
  C:1AE9H         SYMBOL        NOEVENT
  C:1A2FH         SYMBOL        NOROBINTIMEOUT
  C:1A26H         SYMBOL        NOTIMEOUT
  C:1A24H         SYMBOL        NOWAITTIMEOUT
  C:1A5BH         SYMBOL        OS_SWITCH_TASK1
  D:0087H         SYMBOL        PCON
  D:00D0H         SYMBOL        PSW
  N:00FFH         SYMBOL        RAMTOP
  N:0080H         SYMBOL        RDY_EVENT
  C:1AF5H         SYMBOL        ROBINON
  C:1ADDH         SYMBOL        SIGNALOFF
  C:1AE9H         SYMBOL        SIGNALON
  N:0004H         SYMBOL        SIG_EVENT
  D:0081H         SYMBOL        SP
  I:0025H         SYMBOL        TASKSTATE
  D:0088H         SYMBOL        TCON
  B:0088H.5       SYMBOL        TF0
  B:0088H.7       SYMBOL        TF1
  D:008CH         SYMBOL        TH0
  D:008DH         SYMBOL        TH1
  C:1AE5H         SYMBOL        TIMEOUTON
  C:19E5H         SYMBOL        TIMERINT
  C:1A16H         SYMBOL        TIMERLOOP
  I:0024H         SYMBOL        TIMERVAL
  N:0005H         SYMBOL        TIMESHARING
  D:008AH         SYMBOL        TL0
  D:008BH         SYMBOL        TL1
  D:0089H         SYMBOL        TMOD
  N:0008H         SYMBOL        TMO_EVENT
  B:0088H.4       SYMBOL        TR0
  B:0088H.6       SYMBOL        TR1
  C:000BH         LINE#         271
  C:19E0H         LINE#         279
  C:19E2H         LINE#         279
  C:19E4H         LINE#         282
  C:19E5H         LINE#         299
  C:19E8H         LINE#         301
  C:19EBH         LINE#         302
  C:19EEH         LINE#         303
BL51 BANKED LINKER/LOCATER V6.22.4.0                                                  05/10/2024  15:28:54  PAGE 11


  C:19F0H         LINE#         305
  C:19F2H         LINE#         306
  C:19F4H         LINE#         307
  C:19F6H         LINE#         308
  C:19F8H         LINE#         309
  C:19FAH         LINE#         310
  C:19FCH         LINE#         311
  C:19FEH         LINE#         312
  C:1A00H         LINE#         316
  C:1A01H         LINE#         317
  C:1A03H         LINE#         318
  C:1A04H         LINE#         319
  C:1A05H         LINE#         320
  C:1A08H         LINE#         321
  C:1A0AH         LINE#         322
  C:1A0BH         LINE#         323
  C:1A0DH         LINE#         324
  C:1A10H         LINE#         325
  C:1A12H         LINE#         329
  C:1A14H         LINE#         330
  C:1A16H         LINE#         331
  C:1A17H         LINE#         332
  C:1A18H         LINE#         333
  C:1A19H         LINE#         334
  C:1A1BH         LINE#         335
  C:1A1DH         LINE#         336
  C:1A1EH         LINE#         337
  C:1A21H         LINE#         338
  C:1A23H         LINE#         339
  C:1A24H         LINE#         340
  C:1A26H         LINE#         341
  C:1A27H         LINE#         342
  C:1A29H         LINE#         344
  C:1A2AH         LINE#         345
  C:1A2CH         LINE#         360
  C:1A2FH         LINE#         366
  C:1A30H         LINE#         367
  C:1A33H         LINE#         370
  C:1A35H         LINE#         371
  C:1A37H         LINE#         372
  C:1A39H         LINE#         373
  C:1A3BH         LINE#         374
  C:1A3DH         LINE#         375
  C:1A3FH         LINE#         376
  C:1A41H         LINE#         377
  C:1A43H         LINE#         378
  C:1A45H         LINE#         379
  C:1A47H         LINE#         380
  C:1A49H         LINE#         381
  C:1A4BH         LINE#         382
  C:1A4DH         LINE#         387
  C:1A4FH         LINE#         388
  C:1A50H         LINE#         389
  C:1A52H         LINE#         390
  C:1A53H         LINE#         391
  C:1A55H         LINE#         392
  C:1A57H         LINE#         393
BL51 BANKED LINKER/LOCATER V6.22.4.0                                                  05/10/2024  15:28:54  PAGE 12


  C:1A58H         LINE#         394
  C:1A59H         LINE#         395
  C:1A5BH         LINE#         424
  C:1A5DH         LINE#         426
  C:1A5FH         LINE#         427
  C:1A60H         LINE#         429
  C:1A61H         LINE#         430
  C:1A63H         LINE#         431
  C:1A64H         LINE#         434
  C:1A65H         LINE#         435
  C:1A66H         LINE#         436
  C:1A67H         LINE#         444
  C:1A6AH         LINE#         445
  C:1A6CH         LINE#         446
  C:1A6EH         LINE#         449
  C:1A6FH         LINE#         450
  C:1A72H         LINE#         458
  C:1A73H         LINE#         462
  C:1A75H         LINE#         463
  C:1A76H         LINE#         464
  C:1A77H         LINE#         465
  C:1A79H         LINE#         468
  C:1A7BH         LINE#         470
  C:1A7DH         LINE#         471
  C:1A7FH         LINE#         472
  C:1A80H         LINE#         473
  C:1A81H         LINE#         474
  C:1A82H         LINE#         476
  C:1A84H         LINE#         478
  C:1A85H         LINE#         479
  C:1A86H         LINE#         480
  C:1A88H         LINE#         481
  C:1A8BH         LINE#         482
  C:1A8DH         LINE#         484
  C:1A8EH         LINE#         485
  C:1A8FH         LINE#         490
  C:1A90H         LINE#         491
  C:1A91H         LINE#         492
  C:1A93H         LINE#         496
  C:1A94H         LINE#         497
  C:1A95H         LINE#         498
  C:1A97H         LINE#         499
  C:1A99H         LINE#         505
  C:1A9BH         LINE#         506
  C:1A9CH         LINE#         507
  C:1A9DH         LINE#         508
  C:1A9FH         LINE#         510
  C:1AA1H         LINE#         511
  C:1AA3H         LINE#         512
  C:1AA4H         LINE#         513
  C:1AA5H         LINE#         516
  C:1AA7H         LINE#         517
  C:1AAAH         LINE#         518
  C:1AACH         LINE#         520
  C:1AADH         LINE#         522
  C:1AAEH         LINE#         523
  C:1AAFH         LINE#         524
BL51 BANKED LINKER/LOCATER V6.22.4.0                                                  05/10/2024  15:28:54  PAGE 13


  C:1AB0H         LINE#         525
  C:1AB1H         LINE#         529
  C:1AB3H         LINE#         530
  C:1AB4H         LINE#         531
  C:1AB6H         LINE#         535
  C:1AB8H         LINE#         536
  C:1AB9H         LINE#         537
  C:1ABAH         LINE#         539
  C:1ABCH         LINE#         543
  C:1ABEH         LINE#         544
  C:1AC0H         LINE#         545
  C:1AC1H         LINE#         546
  C:1AC2H         LINE#         548
  C:1AC4H         LINE#         549
  C:1AC6H         LINE#         555
  C:1AC9H         LINE#         559
  C:1ACBH         LINE#         560
  C:1ACCH         LINE#         561
  C:1ACEH         LINE#         562
  C:1ACFH         LINE#         563
  C:1AD1H         LINE#         564
  C:1AD3H         LINE#         565
  C:1AD4H         LINE#         567
  C:1AD7H         LINE#         571
  C:1ADAH         LINE#         572
  C:1ADDH         LINE#         576
  C:1ADFH         LINE#         577
  C:1AE2H         LINE#         578
  C:1AE5H         LINE#         580
  C:1AE7H         LINE#         581
  C:1AE9H         LINE#         583
  C:1AEBH         LINE#         584
  C:1AECH         LINE#         585
  C:1AEEH         LINE#         587
  C:1AF0H         LINE#         588
  C:1AF2H         LINE#         594
  C:1AF4H         LINE#         595
  C:1AF5H         LINE#         608
  C:1AF6H         LINE#         609
  C:1AF8H         LINE#         614
  C:1AFAH         LINE#         615
  C:1AFCH         LINE#         616
  C:1AFEH         LINE#         617
  C:1B00H         LINE#         618
  C:1B02H         LINE#         619
  C:1B04H         LINE#         620
  C:1B06H         LINE#         621
  C:1B08H         LINE#         622
  C:1B0AH         LINE#         623
  C:1B0CH         LINE#         624
  C:1B0EH         LINE#         625
  C:1B10H         LINE#         626
  C:1B12H         LINE#         627
  C:1B14H         LINE#         628
  C:1B15H         LINE#         642
  C:1B17H         LINE#         643
  C:1B19H         LINE#         644
BL51 BANKED LINKER/LOCATER V6.22.4.0                                                  05/10/2024  15:28:54  PAGE 14


  C:1B1BH         LINE#         645
  C:1B1DH         LINE#         646
  C:1B1EH         LINE#         647
  C:1B1FH         LINE#         648
  C:1B21H         LINE#         649
  C:1B23H         LINE#         650
  C:1B25H         LINE#         651
  C:1B26H         LINE#         652
  C:1B28H         LINE#         653
  C:1B29H         LINE#         654
  C:1B2AH         LINE#         655
  C:1B2BH         LINE#         656
  C:1B2CH         LINE#         657
  C:1B2EH         LINE#         658
  C:1B30H         LINE#         659
  C:1B32H         LINE#         660
  C:1B35H         LINE#         661
  C:1B37H         LINE#         662
  C:1B38H         LINE#         663
  C:1B3AH         LINE#         664
  C:1B3BH         LINE#         665
  C:1B3CH         LINE#         666
  C:1B3EH         LINE#         668
  C:1B41H         LINE#         670
  C:1B44H         LINE#         671
  C:1B47H         LINE#         672
  C:1B4AH         LINE#         673
  C:1B4CH         LINE#         674
  C:1B4EH         LINE#         675
  C:1B50H         LINE#         676
  -------         ENDMOD        ?RTX51_TINY_KERNAL

  -------         MODULE        MAIN
  C:0000H         SYMBOL        _ICE_DUMMY_
  D:0080H         PUBLIC        P0
  D:0090H         PUBLIC        P1
  D:00A0H         PUBLIC        P2
  D:00B0H         PUBLIC        P3
  D:00C0H         PUBLIC        P4
  X:0426H         PUBLIC        counter
  D:00C8H         PUBLIC        P5
  C:2EF1H         PUBLIC        task_uart1
  D:00E8H         PUBLIC        P6
  B:00A8H.7       PUBLIC        EA
  D:00F8H         PUBLIC        P7
  C:3764H         PUBLIC        GPIO_config
  D:00A2H         PUBLIC        P_SW1
  D:00BAH         PUBLIC        P_SW2
  D:00A8H         PUBLIC        IE
  C:3469H         PUBLIC        UART_config
  D:00B8H         PUBLIC        IP
  D:0098H         PUBLIC        SCON
  D:0088H         PUBLIC        TCON
  C:36B0H         PUBLIC        start_main
  C:2AF3H         PUBLIC        on_uart1_recv
  C:0003H         PUBLIC        Key_on_keydown
  C:384FH         PUBLIC        task1
BL51 BANKED LINKER/LOCATER V6.22.4.0                                                  05/10/2024  15:28:54  PAGE 15


  X:0428H         PUBLIC        forward_speed
  C:37A6H         PUBLIC        sys_init
  C:0026H         PUBLIC        Key_on_keyup
  D:00D0H         PUBLIC        PSW
  -------         PROC          GPIO_CONFIG
  -------         DO            
  X:02D4H         SYMBOL        GPIO_InitStructure
  -------         ENDDO         
  C:3764H         LINE#         34
  C:3764H         LINE#         38
  C:376AH         LINE#         39
  C:376FH         LINE#         40
  -------         ENDPROC       GPIO_CONFIG
  -------         PROC          UART_CONFIG
  -------         DO            
  X:02D4H         SYMBOL        COMx_InitStructure
  -------         ENDDO         
  C:3469H         LINE#         43
  C:3469H         LINE#         46
  C:346FH         LINE#         47
  C:3473H         LINE#         48
  C:347BH         LINE#         49
  C:3481H         LINE#         50
  C:3484H         LINE#         51
  C:348FH         LINE#         53
  C:3496H         LINE#         54
  C:3499H         LINE#         55
  -------         ENDPROC       UART_CONFIG
  -------         PROC          KEY_ON_KEYUP
  C:0026H         LINE#         59
  C:0026H         LINE#         61
  -------         ENDPROC       KEY_ON_KEYUP
  -------         PROC          KEY_ON_KEYDOWN
  C:0003H         LINE#         70
  C:0003H         LINE#         73
  C:0008H         LINE#         99
  -------         ENDPROC       KEY_ON_KEYDOWN
  -------         PROC          SYS_INIT
  C:37A6H         LINE#         103
  C:37A6H         LINE#         104
  C:37A9H         LINE#         105
  C:37ACH         LINE#         106
  C:37AFH         LINE#         107
  C:37B1H         LINE#         110
  C:37B4H         LINE#         111
  C:37B7H         LINE#         112
  -------         ENDPROC       SYS_INIT
  -------         PROC          START_MAIN
  C:36B0H         LINE#         115
  C:36B0H         LINE#         117
  C:36B3H         LINE#         120
  C:36B8H         LINE#         121
  C:36BDH         LINE#         122
  C:36C2H         LINE#         123
  C:36C7H         LINE#         127
  -------         ENDPROC       START_MAIN
  -------         PROC          TASK1
BL51 BANKED LINKER/LOCATER V6.22.4.0                                                  05/10/2024  15:28:54  PAGE 16


  C:384FH         LINE#         130
  C:384FH         LINE#         131
  C:3852H         LINE#         132
  C:3852H         LINE#         133
  C:3855H         LINE#         134
  C:385CH         LINE#         135
  -------         ENDPROC       TASK1
  -------         PROC          ON_UART1_RECV
  -------         DO            
  X:0425H         SYMBOL        light_state
  -------         ENDDO         
  C:2AF3H         LINE#         148
  C:2AF3H         LINE#         153
  C:2AFBH         LINE#         154
  C:2B01H         LINE#         155
  C:2B05H         LINE#         156
  C:2B07H         LINE#         157
  C:2B0CH         LINE#         158
  C:2B0CH         LINE#         160
  C:2B1DH         LINE#         161
  C:2B26H         LINE#         162
  C:2B2FH         LINE#         163
  C:2B2FH         LINE#         165
  C:2B3FH         LINE#         166
  C:2B3FH         LINE#         167
  C:2B3FH         LINE#         168
  C:2B47H         LINE#         169
  C:2B49H         LINE#         170
  C:2B49H         LINE#         171
  C:2B4CH         LINE#         172
  C:2B4CH         LINE#         173
  C:2B4CH         LINE#         174
  C:2B5BH         LINE#         175
  C:2B5EH         LINE#         176
  C:2B5EH         LINE#         177
  C:2B5EH         LINE#         178
  C:2B5EH         LINE#         179
  C:2B5EH         LINE#         180
  -------         ENDPROC       ON_UART1_RECV
  -------         PROC          TASK_UART1
  -------         DO            
  X:02E9H         SYMBOL        i
  -------         ENDDO         
  C:2EF1H         LINE#         183
  C:2EF1H         LINE#         186
  C:2EF1H         LINE#         187
  C:2EFAH         LINE#         189
  C:2EFFH         LINE#         190
  C:2F08H         LINE#         192
  C:2F0BH         LINE#         194
  C:2F1EH         LINE#         197
  C:2F2DH         LINE#         198
  C:2F35H         LINE#         199
  C:2F35H         LINE#         200
  C:2F3AH         LINE#         201
  C:2F3AH         LINE#         202
  C:2F3AH         LINE#         204
BL51 BANKED LINKER/LOCATER V6.22.4.0                                                  05/10/2024  15:28:54  PAGE 17


  C:2F41H         LINE#         205
  -------         ENDPROC       TASK_UART1
  -------         ENDMOD        MAIN

  -------         MODULE        APP_BLUETOOTH
  C:0000H         SYMBOL        _ICE_DUMMY_
  D:0080H         PUBLIC        P0
  D:0090H         PUBLIC        P1
  D:00A0H         PUBLIC        P2
  D:00B0H         PUBLIC        P3
  D:00C0H         PUBLIC        P4
  D:00C8H         PUBLIC        P5
  D:00E8H         PUBLIC        P6
  D:00F8H         PUBLIC        P7
  C:355AH         SYMBOL        GPIO_config
  D:00BAH         PUBLIC        P_SW2
  D:00A8H         PUBLIC        IE
  X:0431H         PUBLIC        is_tracking
  D:00B8H         PUBLIC        IP
  C:2127H         PUBLIC        _do_control_action
  C:38D0H         PUBLIC        bt_enable
  B:00C0H.0       PUBLIC        P40
  D:0098H         PUBLIC        SCON
  D:0088H         PUBLIC        TCON
  C:2B5FH         PUBLIC        do_control
  X:0432H         PUBLIC        is_turning
  C:349AH         PUBLIC        UART2_config
  C:2D45H         PUBLIC        task_bluetooth
  D:00D0H         PUBLIC        PSW
  -------         PROC          BT_ENABLE
  C:38D0H         LINE#         11
  C:38D0H         LINE#         13
  C:38D2H         LINE#         14
  C:38D9H         LINE#         15
  C:38DBH         LINE#         16
  -------         ENDPROC       BT_ENABLE
  -------         PROC          GPIO_CONFIG
  -------         DO            
  X:030FH         SYMBOL        GPIO_InitStructure
  -------         ENDDO         
  C:355AH         LINE#         18
  C:355AH         LINE#         22
  C:3560H         LINE#         23
  C:3565H         LINE#         24
  C:3570H         LINE#         27
  C:3576H         LINE#         28
  C:357BH         LINE#         29
  -------         ENDPROC       GPIO_CONFIG
  -------         PROC          UART2_CONFIG
  -------         DO            
  X:030FH         SYMBOL        COMx_InitStructure
  -------         ENDDO         
  C:349AH         LINE#         32
  C:349AH         LINE#         34
  C:34A0H         LINE#         35
  C:34A4H         LINE#         36
  C:34ACH         LINE#         37
BL51 BANKED LINKER/LOCATER V6.22.4.0                                                  05/10/2024  15:28:54  PAGE 18


  C:34B2H         LINE#         38
  C:34B5H         LINE#         39
  C:34C0H         LINE#         41
  C:34C7H         LINE#         42
  C:34CAH         LINE#         43
  -------         ENDPROC       UART2_CONFIG
  -------         PROC          _DO_CONTROL_ACTION
  X:0311H         SYMBOL        array
  D:0005H         SYMBOL        len
  -------         DO            
  X:042FH         SYMBOL        x
  X:0430H         SYMBOL        y
  X:0314H         SYMBOL        i
  -------         ENDDO         
  C:2127H         LINE#         66
  C:2132H         LINE#         69
  C:213BH         LINE#         71
  C:213BH         LINE#         74
  C:2144H         LINE#         75
  C:2153H         LINE#         76
  C:2178H         LINE#         77
  C:2180H         LINE#         78
  C:2189H         LINE#         80
  C:219EH         LINE#         82
  C:219EH         LINE#         83
  C:21ABH         LINE#         85
  C:21ABH         LINE#         88
  C:21B5H         LINE#         89
  C:21B9H         LINE#         90
  C:21C2H         LINE#         91
  C:21C7H         LINE#         94
  C:21D9H         LINE#         96
  C:21D9H         LINE#         99
  C:21DFH         LINE#         100
  C:21E1H         LINE#         102
  C:21E1H         LINE#         105
  C:21F5H         LINE#         106
  C:21FBH         LINE#         107
  C:21FDH         LINE#         109
  C:2211H         LINE#         110
  C:221CH         LINE#         111
  C:2223H         LINE#         113
  C:2229H         LINE#         114
  C:222BH         LINE#         115
  C:222EH         LINE#         117
  C:222EH         LINE#         120
  C:2243H         LINE#         121
  C:2249H         LINE#         123
  C:224CH         LINE#         124
  C:2251H         LINE#         125
  C:2257H         LINE#         126
  C:2259H         LINE#         128
  C:225EH         LINE#         129
  C:2267H         LINE#         130
  C:2267H         LINE#         131
  C:2279H         LINE#         133
  C:2279H         LINE#         135
BL51 BANKED LINKER/LOCATER V6.22.4.0                                                  05/10/2024  15:28:54  PAGE 19


  C:228FH         LINE#         136
  C:229AH         LINE#         138
  C:22B9H         LINE#         140
  C:22CCH         LINE#         141
  -------         ENDPROC       _DO_CONTROL_ACTION
  -------         PROC          DO_CONTROL
  -------         DO            
  X:030FH         SYMBOL        i
  X:0310H         SYMBOL        total
  -------         ENDDO         
  C:2B5FH         LINE#         143
  C:2B5FH         LINE#         145
  C:2B67H         LINE#         153
  C:2B7CH         LINE#         155
  C:2B98H         LINE#         158
  C:2BA5H         LINE#         160
  C:2BA5H         LINE#         161
  C:2BA5H         LINE#         164
  C:2BB4H         LINE#         165
  C:2BBBH         LINE#         166
  C:2BBBH         LINE#         167
  C:2BC3H         LINE#         168
  -------         ENDPROC       DO_CONTROL
  -------         PROC          TASK_BLUETOOTH
  -------         DO            
  X:030EH         SYMBOL        i
  -------         ENDDO         
  C:2D45H         LINE#         171
  C:2D45H         LINE#         173
  C:2D48H         LINE#         174
  C:2D4BH         LINE#         176
  C:2D4BH         LINE#         177
  C:2D54H         LINE#         179
  C:2D59H         LINE#         180
  C:2D62H         LINE#         183
  C:2D65H         LINE#         185
  C:2D78H         LINE#         188
  C:2D87H         LINE#         189
  C:2D8FH         LINE#         190
  C:2D8FH         LINE#         191
  C:2D94H         LINE#         192
  C:2D94H         LINE#         193
  C:2D94H         LINE#         196
  C:2D9BH         LINE#         197
  -------         ENDPROC       TASK_BLUETOOTH
  -------         ENDMOD        APP_BLUETOOTH

  -------         MODULE        APP_TRACKER
  C:0000H         SYMBOL        _ICE_DUMMY_
  D:0080H         PUBLIC        P0
  D:0090H         PUBLIC        P1
  D:00A0H         PUBLIC        P2
  D:00B0H         PUBLIC        P3
  D:00C0H         PUBLIC        P4
  D:00C8H         PUBLIC        P5
  D:00E8H         PUBLIC        P6
  C:271CH         PUBLIC        task_tracker
BL51 BANKED LINKER/LOCATER V6.22.4.0                                                  05/10/2024  15:28:54  PAGE 20


  D:00F8H         PUBLIC        P7
  D:00A8H         PUBLIC        IE
  D:00B8H         PUBLIC        IP
  D:0098H         PUBLIC        SCON
  D:0088H         PUBLIC        TCON
  D:00D0H         PUBLIC        PSW
  -------         PROC          TASK_TRACKER
  -------         DO            
  X:0345H         SYMBOL        pos
  X:0347H         SYMBOL        last_pos
  -------         ENDDO         
  C:271CH         LINE#         5
  C:271CH         LINE#         10
  C:271FH         LINE#         12
  C:271FH         LINE#         19
  C:273FH         LINE#         20
  C:273FH         LINE#         21
  C:273FH         LINE#         22
  C:2741H         LINE#         23
  C:2741H         LINE#         26
  C:2747H         LINE#         27
  C:274AH         LINE#         28
  C:274AH         LINE#         29
  C:274CH         LINE#         30
  C:274CH         LINE#         32
  C:2757H         LINE#         33
  C:2761H         LINE#         34
  C:2768H         LINE#         36
  C:276AH         LINE#         37
  C:276AH         LINE#         39
  C:2778H         LINE#         42
  C:2780H         LINE#         43
  C:2786H         LINE#         45
  C:2799H         LINE#         46
  C:27A4H         LINE#         48
  C:27A6H         LINE#         49
  C:27ADH         LINE#         51
  C:27ADH         LINE#         54
  C:27B4H         LINE#         55
  -------         ENDPROC       TASK_TRACKER
  -------         ENDMOD        APP_TRACKER

  -------         MODULE        APP_ULTRASONIC
  C:0000H         SYMBOL        _ICE_DUMMY_
  D:0080H         PUBLIC        P0
  D:0090H         PUBLIC        P1
  D:00A0H         PUBLIC        P2
  D:00B0H         PUBLIC        P3
  D:00C0H         PUBLIC        P4
  D:00C8H         PUBLIC        P5
  D:00E8H         PUBLIC        P6
  D:00F8H         PUBLIC        P7
  D:00A8H         PUBLIC        IE
  D:00B8H         PUBLIC        IP
  D:0098H         PUBLIC        SCON
  D:0088H         PUBLIC        TCON
  X:042AH         PUBLIC        is_ultrasonic_enable
BL51 BANKED LINKER/LOCATER V6.22.4.0                                                  05/10/2024  15:28:54  PAGE 21


  X:042BH         PUBLIC        global_distance_cm
  C:2670H         PUBLIC        task_ultrasonic
  D:00D0H         PUBLIC        PSW
  -------         PROC          TASK_ULTRASONIC
  -------         DO            
  X:0371H         SYMBOL        distance
  X:0375H         SYMBOL        rst
  -------         ENDDO         
  C:2670H         LINE#         8
  C:2670H         LINE#         12
  C:2673H         LINE#         14
  C:2673H         LINE#         15
  C:2679H         LINE#         18
  C:2680H         LINE#         19
  C:2682H         LINE#         20
  C:2682H         LINE#         23
  C:2690H         LINE#         24
  C:2692H         LINE#         25
  C:26AFH         LINE#         26
  C:26C3H         LINE#         28
  C:26DDH         LINE#         30
  C:26E6H         LINE#         31
  C:26E6H         LINE#         33
  C:26E8H         LINE#         34
  C:2712H         LINE#         35
  C:2712H         LINE#         38
  C:2719H         LINE#         39
  -------         ENDPROC       TASK_ULTRASONIC
  -------         ENDMOD        APP_ULTRASONIC

  -------         MODULE        APP_BATTERY_DETECTION
  C:0000H         SYMBOL        _ICE_DUMMY_
  D:0080H         PUBLIC        P0
  D:0090H         PUBLIC        P1
  D:00A0H         PUBLIC        P2
  D:00B0H         PUBLIC        P3
  D:00C0H         PUBLIC        P4
  D:00C8H         PUBLIC        P5
  D:00E8H         PUBLIC        P6
  D:00F8H         PUBLIC        P7
  D:00A8H         PUBLIC        IE
  C:2BC4H         PUBLIC        task_battery
  D:00B8H         PUBLIC        IP
  C:3690H         PUBLIC        isLowPower
  D:0098H         PUBLIC        SCON
  D:0088H         PUBLIC        TCON
  X:0433H         PUBLIC        voltage
  D:00D0H         PUBLIC        PSW
  -------         PROC          ISLOWPOWER
  C:3690H         LINE#         10
  C:3690H         LINE#         11
  C:36AFH         LINE#         12
  -------         ENDPROC       ISLOWPOWER
  -------         PROC          TASK_BATTERY
  C:2BC4H         LINE#         14
  C:2BC4H         LINE#         15
  C:2BC7H         LINE#         16
BL51 BANKED LINKER/LOCATER V6.22.4.0                                                  05/10/2024  15:28:54  PAGE 22


  C:2BC7H         LINE#         18
  C:2BD0H         LINE#         19
  C:2BEDH         LINE#         24
  C:2BF3H         LINE#         25
  C:2C10H         LINE#         28
  C:2C19H         LINE#         29
  C:2C19H         LINE#         32
  C:2C20H         LINE#         33
  C:2C27H         LINE#         34
  -------         ENDPROC       TASK_BATTERY
  -------         ENDMOD        APP_BATTERY_DETECTION

  -------         MODULE        DELAY
  C:0000H         SYMBOL        _ICE_DUMMY_
  D:0080H         PUBLIC        P0
  D:0090H         PUBLIC        P1
  D:00A0H         PUBLIC        P2
  D:00B0H         PUBLIC        P3
  D:00C0H         PUBLIC        P4
  D:00C8H         PUBLIC        P5
  D:00E8H         PUBLIC        P6
  D:00F8H         PUBLIC        P7
  D:00A8H         PUBLIC        IE
  D:00B8H         PUBLIC        IP
  D:0098H         PUBLIC        SCON
  D:0088H         PUBLIC        TCON
  C:3754H         PUBLIC        _delay_ms
  C:38E8H         PUBLIC        _delay_s
  D:00D0H         PUBLIC        PSW
  -------         PROC          L?0012
  -------         ENDPROC       L?0012
  -------         PROC          _DELAY_MS
  D:0007H         SYMBOL        ms
  -------         DO            
  D:0004H         SYMBOL        i
  -------         ENDDO         
  C:3754H         LINE#         24
  C:3754H         LINE#         25
  C:3754H         LINE#         27
  C:3754H         LINE#         28
  C:3758H         LINE#         29
  C:3761H         LINE#         30
  C:3763H         LINE#         31
  -------         ENDPROC       _DELAY_MS
  -------         PROC          _DELAY_S
  D:0006H         SYMBOL        s
  C:38E8H         LINE#         33
  C:38EAH         LINE#         34
  C:38EAH         LINE#         35
  C:38EAH         LINE#         36
  C:38EAH         LINE#         37
  C:38EDH         LINE#         38
  C:38EDH         LINE#         39
  C:38F0H         LINE#         40
  C:38F2H         LINE#         41
  -------         ENDPROC       _DELAY_S
  -------         ENDMOD        DELAY
BL51 BANKED LINKER/LOCATER V6.22.4.0                                                  05/10/2024  15:28:54  PAGE 23



  -------         MODULE        GPIO
  C:0000H         SYMBOL        _ICE_DUMMY_
  D:0093H         PUBLIC        P0M1
  D:0092H         PUBLIC        P1M0
  D:0096H         PUBLIC        P2M0
  D:0091H         PUBLIC        P1M1
  D:0080H         PUBLIC        P0
  D:00B2H         PUBLIC        P3M0
  D:0095H         PUBLIC        P2M1
  D:0090H         PUBLIC        P1
  D:00B4H         PUBLIC        P4M0
  D:00B1H         PUBLIC        P3M1
  D:00A0H         PUBLIC        P2
  D:00CAH         PUBLIC        P5M0
  D:00B3H         PUBLIC        P4M1
  D:00B0H         PUBLIC        P3
  D:00CCH         PUBLIC        P6M0
  D:00C9H         PUBLIC        P5M1
  D:00C0H         PUBLIC        P4
  D:00E2H         PUBLIC        P7M0
  D:00CBH         PUBLIC        P6M1
  D:00C8H         PUBLIC        P5
  D:00E8H         PUBLIC        P6
  D:00E1H         PUBLIC        P7M1
  D:00F8H         PUBLIC        P7
  D:00A8H         PUBLIC        IE
  D:00B8H         PUBLIC        IP
  D:0098H         PUBLIC        SCON
  D:0088H         PUBLIC        TCON
  C:1CC3H         PUBLIC        _GPIO_Inilize
  D:00D0H         PUBLIC        PSW
  D:0094H         PUBLIC        P0M0
  -------         PROC          _GPIO_INILIZE
  D:0007H         SYMBOL        GPIO
  D:0001H         SYMBOL        GPIOx
  C:1CC3H         LINE#         22
  C:1CC3H         LINE#         23
  C:1CC3H         LINE#         24
  C:1CCCH         LINE#         25
  C:1CD8H         LINE#         26
  C:1CDBH         LINE#         27
  C:1CDBH         LINE#         28
  C:1CE9H         LINE#         29
  C:1CFAH         LINE#         30
  C:1D0BH         LINE#         31
  C:1D1CH         LINE#         32
  C:1D1CH         LINE#         33
  C:1D21H         LINE#         34
  C:1D21H         LINE#         35
  C:1D32H         LINE#         36
  C:1D41H         LINE#         37
  C:1D51H         LINE#         38
  C:1D64H         LINE#         39
  C:1D64H         LINE#         40
  C:1D69H         LINE#         41
  C:1D69H         LINE#         42
BL51 BANKED LINKER/LOCATER V6.22.4.0                                                  05/10/2024  15:28:54  PAGE 24


  C:1D7AH         LINE#         43
  C:1D89H         LINE#         44
  C:1D99H         LINE#         45
  C:1DACH         LINE#         46
  C:1DACH         LINE#         47
  C:1DB1H         LINE#         48
  C:1DB1H         LINE#         49
  C:1DC2H         LINE#         50
  C:1DD1H         LINE#         51
  C:1DE1H         LINE#         52
  C:1DF4H         LINE#         53
  C:1DF4H         LINE#         54
  C:1DF9H         LINE#         55
  C:1DF9H         LINE#         56
  C:1E0AH         LINE#         57
  C:1E19H         LINE#         58
  C:1E29H         LINE#         59
  C:1E3CH         LINE#         60
  C:1E3CH         LINE#         61
  C:1E41H         LINE#         62
  C:1E41H         LINE#         63
  C:1E52H         LINE#         64
  C:1E61H         LINE#         65
  C:1E71H         LINE#         66
  C:1E84H         LINE#         67
  C:1E84H         LINE#         68
  C:1E89H         LINE#         69
  C:1E89H         LINE#         70
  C:1E9AH         LINE#         71
  C:1EA9H         LINE#         72
  C:1EB9H         LINE#         73
  C:1ECCH         LINE#         74
  C:1ECCH         LINE#         75
  C:1ED1H         LINE#         76
  C:1ED1H         LINE#         77
  C:1EE2H         LINE#         78
  C:1EF1H         LINE#         79
  C:1F01H         LINE#         80
  C:1F14H         LINE#         81
  C:1F14H         LINE#         82
  C:1F16H         LINE#         83
  -------         ENDPROC       _GPIO_INILIZE
  -------         ENDMOD        GPIO

  -------         MODULE        NVIC
  C:0000H         SYMBOL        _ICE_DUMMY_
  D:0080H         PUBLIC        P0
  D:0090H         PUBLIC        P1
  D:00A0H         PUBLIC        P2
  D:00B0H         PUBLIC        P3
  D:00C0H         PUBLIC        P4
  D:00C8H         PUBLIC        P5
  D:00E8H         PUBLIC        P6
  D:00F8H         PUBLIC        P7
  B:00A8H.5       PUBLIC        EADC
  D:00A8H         PUBLIC        IE
  D:00B6H         PUBLIC        IP2H
BL51 BANKED LINKER/LOCATER V6.22.4.0                                                  05/10/2024  15:28:54  PAGE 25


  D:00EEH         PUBLIC        IP3H
  D:008FH         PUBLIC        INTCLKO
  B:00A8H.4       PUBLIC        ES
  B:00B8H.5       PUBLIC        PADC
  D:00B8H         PUBLIC        IP
  B:00B8H.4       PUBLIC        PS
  C:32F9H         PUBLIC        _NVIC_INT0_Init
  C:333AH         PUBLIC        _NVIC_INT1_Init
  C:3735H         PUBLIC        _NVIC_INT2_Init
  C:371CH         PUBLIC        _NVIC_INT3_Init
  D:00E6H         PUBLIC        CMPCR1
  C:3702H         PUBLIC        _NVIC_INT4_Init
  D:0098H         PUBLIC        SCON
  D:0088H         PUBLIC        TCON
  C:3277H         PUBLIC        _NVIC_Timer0_Init
  C:32B8H         PUBLIC        _NVIC_Timer1_Init
  C:364CH         PUBLIC        _NVIC_Timer2_Init
  C:366EH         PUBLIC        _NVIC_Timer3_Init
  D:00AFH         PUBLIC        IE2
  C:3629H         PUBLIC        _NVIC_Timer4_Init
  C:2C8CH         PUBLIC        _NVIC_I2C_Init
  B:00A8H.1       PUBLIC        ET0
  B:00A8H.3       PUBLIC        ET1
  D:00B5H         PUBLIC        IP2
  D:00DFH         PUBLIC        IP3
  B:00A8H.0       PUBLIC        EX0
  B:00A8H.2       PUBLIC        EX1
  C:337BH         PUBLIC        _NVIC_ADC_Init
  B:00B8H.1       PUBLIC        PT0
  B:00B8H.3       PUBLIC        PT1
  B:00B8H.0       PUBLIC        PX0
  B:00B8H.2       PUBLIC        PX1
  D:00B7H         PUBLIC        IPH
  C:3085H         PUBLIC        _NVIC_CMP_Init
  C:33FDH         PUBLIC        _NVIC_RTC_Init
  C:3162H         PUBLIC        _NVIC_SPI_Init
  C:33BCH         PUBLIC        _NVIC_UART1_Init
  C:3234H         PUBLIC        _NVIC_UART2_Init
  C:30D0H         PUBLIC        _NVIC_UART3_Init
  C:311AH         PUBLIC        _NVIC_UART4_Init
  D:00D0H         PUBLIC        PSW
  C:29FCH         PUBLIC        _NVIC_PWM_Init
  -------         PROC          _NVIC_TIMER0_INIT
  D:0007H         SYMBOL        State
  D:0005H         SYMBOL        Priority
  C:3277H         LINE#         23
  C:3277H         LINE#         24
  C:3277H         LINE#         25
  C:3280H         LINE#         26
  C:3289H         LINE#         27
  C:3292H         LINE#         28
  C:32B5H         LINE#         29
  C:32B7H         LINE#         30
  -------         ENDPROC       _NVIC_TIMER0_INIT
  -------         PROC          _NVIC_TIMER1_INIT
  D:0007H         SYMBOL        State
  D:0005H         SYMBOL        Priority
BL51 BANKED LINKER/LOCATER V6.22.4.0                                                  05/10/2024  15:28:54  PAGE 26


  C:32B8H         LINE#         40
  C:32B8H         LINE#         41
  C:32B8H         LINE#         42
  C:32C1H         LINE#         43
  C:32CAH         LINE#         44
  C:32D3H         LINE#         45
  C:32F6H         LINE#         46
  C:32F8H         LINE#         47
  -------         ENDPROC       _NVIC_TIMER1_INIT
  -------         PROC          _NVIC_TIMER2_INIT
  D:0007H         SYMBOL        State
  D:0005H         SYMBOL        Priority
  C:364CH         LINE#         57
  C:364CH         LINE#         58
  C:364CH         LINE#         59
  C:3655H         LINE#         60
  C:365EH         LINE#         61
  C:366BH         LINE#         62
  C:366CH         LINE#         63
  C:366DH         LINE#         64
  -------         ENDPROC       _NVIC_TIMER2_INIT
  -------         PROC          _NVIC_TIMER3_INIT
  D:0007H         SYMBOL        State
  D:0005H         SYMBOL        Priority
  C:366EH         LINE#         74
  C:366EH         LINE#         75
  C:366EH         LINE#         76
  C:3677H         LINE#         77
  C:3680H         LINE#         78
  C:368DH         LINE#         79
  C:368EH         LINE#         80
  C:368FH         LINE#         81
  -------         ENDPROC       _NVIC_TIMER3_INIT
  -------         PROC          _NVIC_TIMER4_INIT
  D:0007H         SYMBOL        State
  D:0005H         SYMBOL        Priority
  C:3629H         LINE#         91
  C:3629H         LINE#         92
  C:3629H         LINE#         93
  C:3632H         LINE#         94
  C:363BH         LINE#         95
  C:3649H         LINE#         96
  C:364AH         LINE#         97
  C:364BH         LINE#         98
  -------         ENDPROC       _NVIC_TIMER4_INIT
  -------         PROC          _NVIC_INT0_INIT
  D:0007H         SYMBOL        State
  D:0005H         SYMBOL        Priority
  C:32F9H         LINE#         108
  C:32F9H         LINE#         109
  C:32F9H         LINE#         110
  C:3302H         LINE#         111
  C:330BH         LINE#         112
  C:3314H         LINE#         113
  C:3337H         LINE#         114
  C:3339H         LINE#         115
  -------         ENDPROC       _NVIC_INT0_INIT
BL51 BANKED LINKER/LOCATER V6.22.4.0                                                  05/10/2024  15:28:54  PAGE 27


  -------         PROC          _NVIC_INT1_INIT
  D:0007H         SYMBOL        State
  D:0005H         SYMBOL        Priority
  C:333AH         LINE#         125
  C:333AH         LINE#         126
  C:333AH         LINE#         127
  C:3343H         LINE#         128
  C:334CH         LINE#         129
  C:3355H         LINE#         130
  C:3378H         LINE#         131
  C:337AH         LINE#         132
  -------         ENDPROC       _NVIC_INT1_INIT
  -------         PROC          _NVIC_INT2_INIT
  D:0007H         SYMBOL        State
  D:0005H         SYMBOL        Priority
  C:3735H         LINE#         142
  C:3735H         LINE#         143
  C:3735H         LINE#         144
  C:373EH         LINE#         145
  C:374AH         LINE#         146
  C:374BH         LINE#         147
  C:374CH         LINE#         148
  -------         ENDPROC       _NVIC_INT2_INIT
  -------         PROC          _NVIC_INT3_INIT
  D:0007H         SYMBOL        State
  D:0005H         SYMBOL        Priority
  C:371CH         LINE#         158
  C:371CH         LINE#         159
  C:371CH         LINE#         160
  C:3725H         LINE#         161
  C:3732H         LINE#         162
  C:3733H         LINE#         163
  C:3734H         LINE#         164
  -------         ENDPROC       _NVIC_INT3_INIT
  -------         PROC          _NVIC_INT4_INIT
  D:0007H         SYMBOL        State
  D:0005H         SYMBOL        Priority
  C:3702H         LINE#         174
  C:3702H         LINE#         175
  C:3702H         LINE#         176
  C:370BH         LINE#         177
  C:3719H         LINE#         178
  C:371AH         LINE#         179
  C:371BH         LINE#         180
  -------         ENDPROC       _NVIC_INT4_INIT
  -------         PROC          _NVIC_ADC_INIT
  D:0007H         SYMBOL        State
  D:0005H         SYMBOL        Priority
  C:337BH         LINE#         190
  C:337BH         LINE#         191
  C:337BH         LINE#         192
  C:3384H         LINE#         193
  C:338DH         LINE#         194
  C:3396H         LINE#         195
  C:33B9H         LINE#         196
  C:33BBH         LINE#         197
  -------         ENDPROC       _NVIC_ADC_INIT
BL51 BANKED LINKER/LOCATER V6.22.4.0                                                  05/10/2024  15:28:54  PAGE 28


  -------         PROC          _NVIC_CMP_INIT
  D:0007H         SYMBOL        State
  D:0005H         SYMBOL        Priority
  C:3085H         LINE#         207
  C:3085H         LINE#         208
  C:3085H         LINE#         209
  C:308EH         LINE#         210
  C:3097H         LINE#         211
  C:309AH         LINE#         212
  C:30A3H         LINE#         213
  C:30A6H         LINE#         214
  C:30CDH         LINE#         215
  C:30CFH         LINE#         216
  -------         ENDPROC       _NVIC_CMP_INIT
  -------         PROC          _NVIC_I2C_INIT
  D:0007H         SYMBOL        Mode
  D:0005H         SYMBOL        State
  D:0003H         SYMBOL        Priority
  C:2C8CH         LINE#         228
  C:2C8CH         LINE#         229
  C:2C8CH         LINE#         230
  C:2C95H         LINE#         231
  C:2C9EH         LINE#         232
  C:2CA2H         LINE#         233
  C:2CA2H         LINE#         234
  C:2CB2H         LINE#         235
  C:2CB4H         LINE#         236
  C:2CB7H         LINE#         237
  C:2CB7H         LINE#         238
  C:2CBFH         LINE#         239
  C:2CBFH         LINE#         240
  C:2CE6H         LINE#         241
  C:2CE8H         LINE#         242
  -------         ENDPROC       _NVIC_I2C_INIT
  -------         PROC          _NVIC_UART1_INIT
  D:0007H         SYMBOL        State
  D:0005H         SYMBOL        Priority
  C:33BCH         LINE#         252
  C:33BCH         LINE#         253
  C:33BCH         LINE#         254
  C:33C5H         LINE#         255
  C:33CEH         LINE#         256
  C:33D7H         LINE#         257
  C:33FAH         LINE#         258
  C:33FCH         LINE#         259
  -------         ENDPROC       _NVIC_UART1_INIT
  -------         PROC          _NVIC_UART2_INIT
  D:0007H         SYMBOL        State
  D:0005H         SYMBOL        Priority
  C:3234H         LINE#         269
  C:3234H         LINE#         270
  C:3234H         LINE#         271
  C:323DH         LINE#         272
  C:3246H         LINE#         273
  C:324DH         LINE#         274
  C:3274H         LINE#         275
  C:3276H         LINE#         276
BL51 BANKED LINKER/LOCATER V6.22.4.0                                                  05/10/2024  15:28:54  PAGE 29


  -------         ENDPROC       _NVIC_UART2_INIT
  -------         PROC          _NVIC_UART3_INIT
  D:0007H         SYMBOL        State
  D:0005H         SYMBOL        Priority
  C:30D0H         LINE#         286
  C:30D0H         LINE#         287
  C:30D0H         LINE#         288
  C:30D9H         LINE#         289
  C:30E2H         LINE#         290
  C:30F0H         LINE#         291
  C:3117H         LINE#         292
  C:3119H         LINE#         293
  -------         ENDPROC       _NVIC_UART3_INIT
  -------         PROC          _NVIC_UART4_INIT
  D:0007H         SYMBOL        State
  D:0005H         SYMBOL        Priority
  C:311AH         LINE#         303
  C:311AH         LINE#         304
  C:311AH         LINE#         305
  C:3123H         LINE#         306
  C:312CH         LINE#         307
  C:3138H         LINE#         308
  C:315FH         LINE#         309
  C:3161H         LINE#         310
  -------         ENDPROC       _NVIC_UART4_INIT
  -------         PROC          _NVIC_SPI_INIT
  D:0007H         SYMBOL        State
  D:0005H         SYMBOL        Priority
  C:3162H         LINE#         320
  C:3162H         LINE#         321
  C:3162H         LINE#         322
  C:316BH         LINE#         323
  C:3174H         LINE#         324
  C:317FH         LINE#         325
  C:31A6H         LINE#         326
  C:31A8H         LINE#         327
  -------         ENDPROC       _NVIC_SPI_INIT
  -------         PROC          _NVIC_PWM_INIT
  D:0007H         SYMBOL        Channel
  D:0005H         SYMBOL        State
  D:0003H         SYMBOL        Priority
  C:29FCH         LINE#         338
  C:29FCH         LINE#         339
  C:29FCH         LINE#         340
  C:2A05H         LINE#         341
  C:2A0EH         LINE#         342
  C:2A16H         LINE#         343
  C:2A16H         LINE#         344
  C:2A16H         LINE#         345
  C:2A1BH         LINE#         346
  C:2A43H         LINE#         347
  C:2A45H         LINE#         349
  C:2A45H         LINE#         350
  C:2A4AH         LINE#         351
  C:2A71H         LINE#         352
  C:2A73H         LINE#         354
  C:2A73H         LINE#         355
BL51 BANKED LINKER/LOCATER V6.22.4.0                                                  05/10/2024  15:28:54  PAGE 30


  C:2A78H         LINE#         356
  C:2A78H         LINE#         357
  C:2A78H         LINE#         358
  C:2A78H         LINE#         359
  C:2A7AH         LINE#         360
  -------         ENDPROC       _NVIC_PWM_INIT
  -------         PROC          _NVIC_RTC_INIT
  D:0007H         SYMBOL        State
  D:0005H         SYMBOL        Priority
  C:33FDH         LINE#         370
  C:33FDH         LINE#         371
  C:33FDH         LINE#         372
  C:342FH         LINE#         373
  C:3434H         LINE#         374
  C:3436H         LINE#         375
  -------         ENDPROC       _NVIC_RTC_INIT
  -------         ENDMOD        NVIC

  -------         MODULE        UART_ISR
  C:0000H         SYMBOL        _ICE_DUMMY_
  D:0080H         PUBLIC        P0
  D:0090H         PUBLIC        P1
  D:00A0H         PUBLIC        P2
  D:00B0H         PUBLIC        P3
  D:00C0H         PUBLIC        P4
  D:00C8H         PUBLIC        P5
  D:00E8H         PUBLIC        P6
  D:00F8H         PUBLIC        P7
  D:00A8H         PUBLIC        IE
  D:00B8H         PUBLIC        IP
  B:0098H.0       PUBLIC        RI
  B:0098H.1       PUBLIC        TI
  D:0099H         PUBLIC        SBUF
  D:0098H         PUBLIC        SCON
  D:0088H         PUBLIC        TCON
  C:3039H         PUBLIC        UART1_ISR_Handler
  C:2F43H         PUBLIC        UART2_ISR_Handler
  C:2F95H         PUBLIC        UART3_ISR_Handler
  D:009BH         PUBLIC        S2BUF
  C:2FE7H         PUBLIC        UART4_ISR_Handler
  D:00ADH         PUBLIC        S3BUF
  D:0085H         PUBLIC        S4BUF
  D:009AH         PUBLIC        S2CON
  D:00ACH         PUBLIC        S3CON
  D:0084H         PUBLIC        S4CON
  D:00D0H         PUBLIC        PSW
  -------         PROC          UART1_ISR_HANDLER
  C:3039H         LINE#         23
  C:3046H         LINE#         25
  C:3049H         LINE#         26
  C:3049H         LINE#         27
  C:304BH         LINE#         29
  C:3056H         LINE#         30
  C:306AH         LINE#         31
  C:3070H         LINE#         32
  C:3070H         LINE#         34
  C:3073H         LINE#         35
BL51 BANKED LINKER/LOCATER V6.22.4.0                                                  05/10/2024  15:28:54  PAGE 31


  C:3073H         LINE#         36
  C:3075H         LINE#         46
  C:307AH         LINE#         48
  C:307AH         LINE#         49
  -------         ENDPROC       UART1_ISR_HANDLER
  -------         PROC          UART2_ISR_HANDLER
  C:2F43H         LINE#         60
  C:2F50H         LINE#         62
  C:2F55H         LINE#         63
  C:2F55H         LINE#         64
  C:2F58H         LINE#         67
  C:2F63H         LINE#         68
  C:2F77H         LINE#         69
  C:2F7DH         LINE#         70
  C:2F7DH         LINE#         72
  C:2F82H         LINE#         73
  C:2F82H         LINE#         74
  C:2F85H         LINE#         84
  C:2F8AH         LINE#         86
  C:2F8AH         LINE#         87
  -------         ENDPROC       UART2_ISR_HANDLER
  -------         PROC          UART3_ISR_HANDLER
  C:2F95H         LINE#         98
  C:2FA2H         LINE#         100
  C:2FA7H         LINE#         101
  C:2FA7H         LINE#         102
  C:2FAAH         LINE#         104
  C:2FB5H         LINE#         105
  C:2FC9H         LINE#         106
  C:2FCFH         LINE#         107
  C:2FCFH         LINE#         109
  C:2FD4H         LINE#         110
  C:2FD4H         LINE#         111
  C:2FD7H         LINE#         121
  C:2FDCH         LINE#         123
  C:2FDCH         LINE#         124
  -------         ENDPROC       UART3_ISR_HANDLER
  -------         PROC          UART4_ISR_HANDLER
  C:2FE7H         LINE#         135
  C:2FF4H         LINE#         137
  C:2FF9H         LINE#         138
  C:2FF9H         LINE#         139
  C:2FFCH         LINE#         141
  C:3007H         LINE#         142
  C:301BH         LINE#         143
  C:3021H         LINE#         144
  C:3021H         LINE#         146
  C:3026H         LINE#         147
  C:3026H         LINE#         148
  C:3029H         LINE#         158
  C:302EH         LINE#         160
  C:302EH         LINE#         161
  -------         ENDPROC       UART4_ISR_HANDLER
  -------         ENDMOD        UART_ISR

  -------         MODULE        ADC
  C:0000H         SYMBOL        _ICE_DUMMY_
BL51 BANKED LINKER/LOCATER V6.22.4.0                                                  05/10/2024  15:28:54  PAGE 32


  D:0080H         PUBLIC        P0
  D:0090H         PUBLIC        P1
  C:2DF4H         PUBLIC        _ADC_Inilize
  D:00A0H         PUBLIC        P2
  D:00B0H         PUBLIC        P3
  D:00C0H         PUBLIC        P4
  D:00C8H         PUBLIC        P5
  D:00E8H         PUBLIC        P6
  D:00F8H         PUBLIC        P7
  D:00A8H         PUBLIC        IE
  D:00BDH         PUBLIC        ADC_RES
  D:00B8H         PUBLIC        IP
  D:00DEH         PUBLIC        ADCCFG
  C:38DCH         PUBLIC        _ADC_PowerControl
  D:00BCH         PUBLIC        ADC_CONTR
  D:0098H         PUBLIC        SCON
  D:0088H         PUBLIC        TCON
  C:2A7BH         PUBLIC        _Get_ADCResult
  D:00BEH         PUBLIC        ADC_RESL
  D:00D0H         PUBLIC        PSW
  -------         PROC          _ADC_INILIZE
  D:0001H         SYMBOL        ADCx
  C:2DF4H         LINE#         22
  C:2DF4H         LINE#         23
  C:2DF4H         LINE#         24
  C:2E02H         LINE#         25
  C:2E14H         LINE#         27
  C:2E1DH         LINE#         28
  C:2E29H         LINE#         29
  C:2E35H         LINE#         31
  C:2E48H         LINE#         32
  -------         ENDPROC       _ADC_INILIZE
  -------         PROC          _ADC_POWERCONTROL
  D:0007H         SYMBOL        pwr
  C:38DCH         LINE#         42
  C:38DCH         LINE#         43
  C:38DCH         LINE#         44
  C:38E4H         LINE#         45
  C:38E7H         LINE#         46
  -------         ENDPROC       _ADC_POWERCONTROL
  -------         PROC          _GET_ADCRESULT
  D:0007H         SYMBOL        channel
  -------         DO            
  X:03B3H         SYMBOL        adc
  D:0005H         SYMBOL        i
  -------         ENDDO         
  C:2A7BH         LINE#         55
  C:2A7BH         LINE#         56
  C:2A7BH         LINE#         60
  C:2A83H         LINE#         61
  C:2A86H         LINE#         62
  C:2A88H         LINE#         64
  C:2A91H         LINE#         65
  C:2A9BH         LINE#         67
  C:2A9DH         LINE#         68
  C:2A9DH         LINE#         69
  C:2AA2H         LINE#         70
BL51 BANKED LINKER/LOCATER V6.22.4.0                                                  05/10/2024  15:28:54  PAGE 33


  C:2AA2H         LINE#         71
  C:2AA5H         LINE#         72
  C:2AACH         LINE#         73
  C:2AACH         LINE#         74
  C:2AB7H         LINE#         75
  C:2AB9H         LINE#         77
  C:2AB9H         LINE#         79
  C:2AC1H         LINE#         80
  C:2AE0H         LINE#         85
  C:2AE0H         LINE#         86
  C:2AE9H         LINE#         87
  C:2AE9H         LINE#         88
  C:2AEEH         LINE#         89
  C:2AF2H         LINE#         90
  -------         ENDPROC       _GET_ADCRESULT
  -------         ENDMOD        ADC

  -------         MODULE        ADC_ISR
  C:0000H         SYMBOL        _ICE_DUMMY_
  D:0080H         PUBLIC        P0
  D:0090H         PUBLIC        P1
  D:00A0H         PUBLIC        P2
  D:00B0H         PUBLIC        P3
  D:00C0H         PUBLIC        P4
  D:00C8H         PUBLIC        P5
  D:00E8H         PUBLIC        P6
  D:00F8H         PUBLIC        P7
  D:00A8H         PUBLIC        IE
  D:00B8H         PUBLIC        IP
  D:00BCH         PUBLIC        ADC_CONTR
  D:0098H         PUBLIC        SCON
  D:0088H         PUBLIC        TCON
  C:391BH         PUBLIC        ADC_ISR_Handler
  D:00D0H         PUBLIC        PSW
  -------         PROC          ADC_ISR_HANDLER
  C:391BH         LINE#         22
  C:391BH         LINE#         24
  C:391EH         LINE#         28
  -------         ENDPROC       ADC_ISR_HANDLER
  -------         ENDMOD        ADC_ISR

  -------         MODULE        STC8H_PWM
  C:0000H         SYMBOL        _ICE_DUMMY_
  D:0080H         PUBLIC        P0
  D:0090H         PUBLIC        P1
  D:00A0H         PUBLIC        P2
  D:00B0H         PUBLIC        P3
  D:00C0H         PUBLIC        P4
  D:00C8H         PUBLIC        P5
  D:00E8H         PUBLIC        P6
  D:00F8H         PUBLIC        P7
  D:00A8H         PUBLIC        IE
  D:00B8H         PUBLIC        IP
  C:22CDH         PUBLIC        _UpdatePwm
  D:0098H         PUBLIC        SCON
  D:0088H         PUBLIC        TCON
  C:15CEH         PUBLIC        _PWM_Configuration
BL51 BANKED LINKER/LOCATER V6.22.4.0                                                  05/10/2024  15:28:54  PAGE 34


  D:00D0H         PUBLIC        PSW
  -------         PROC          _PWM_CONFIGURATION
  D:0005H         SYMBOL        PWM
  D:0001H         SYMBOL        PWMx
  C:15CEH         LINE#         22
  C:15D0H         LINE#         23
  C:15D0H         LINE#         24
  C:15D5H         LINE#         25
  C:15D5H         LINE#         26
  C:15DCH         LINE#         27
  C:15E0H         LINE#         28
  C:15E7H         LINE#         29
  C:15F3H         LINE#         31
  C:1600H         LINE#         32
  C:1600H         LINE#         33
  C:1604H         LINE#         34
  C:160BH         LINE#         35
  C:160DH         LINE#         37
  C:160DH         LINE#         38
  C:1611H         LINE#         39
  C:1618H         LINE#         40
  C:1618H         LINE#         41
  C:161FH         LINE#         42
  C:161FH         LINE#         43
  C:1623H         LINE#         44
  C:162AH         LINE#         45
  C:162CH         LINE#         47
  C:162CH         LINE#         48
  C:1630H         LINE#         49
  C:1637H         LINE#         50
  C:1637H         LINE#         52
  C:164CH         LINE#         54
  C:164FH         LINE#         55
  C:164FH         LINE#         57
  C:1654H         LINE#         58
  C:1654H         LINE#         59
  C:165BH         LINE#         60
  C:165FH         LINE#         61
  C:1666H         LINE#         62
  C:1672H         LINE#         64
  C:167FH         LINE#         65
  C:167FH         LINE#         66
  C:1683H         LINE#         67
  C:168AH         LINE#         68
  C:168CH         LINE#         70
  C:168CH         LINE#         71
  C:1690H         LINE#         72
  C:1697H         LINE#         73
  C:1697H         LINE#         74
  C:169EH         LINE#         75
  C:169EH         LINE#         76
  C:16A2H         LINE#         77
  C:16A9H         LINE#         78
  C:16ABH         LINE#         80
  C:16ABH         LINE#         81
  C:16AFH         LINE#         82
  C:16B6H         LINE#         83
BL51 BANKED LINKER/LOCATER V6.22.4.0                                                  05/10/2024  15:28:54  PAGE 35


  C:16B6H         LINE#         85
  C:16CBH         LINE#         87
  C:16CEH         LINE#         88
  C:16CEH         LINE#         90
  C:16D3H         LINE#         91
  C:16D3H         LINE#         92
  C:16DAH         LINE#         93
  C:16DEH         LINE#         94
  C:16E5H         LINE#         95
  C:16F1H         LINE#         97
  C:16FEH         LINE#         98
  C:16FEH         LINE#         99
  C:1702H         LINE#         100
  C:1709H         LINE#         101
  C:170BH         LINE#         103
  C:170BH         LINE#         104
  C:170FH         LINE#         105
  C:1716H         LINE#         106
  C:1716H         LINE#         107
  C:171DH         LINE#         108
  C:171DH         LINE#         109
  C:1721H         LINE#         110
  C:1728H         LINE#         111
  C:172AH         LINE#         113
  C:172AH         LINE#         114
  C:172EH         LINE#         115
  C:1735H         LINE#         116
  C:1735H         LINE#         118
  C:174AH         LINE#         120
  C:174DH         LINE#         121
  C:174DH         LINE#         123
  C:1752H         LINE#         124
  C:1752H         LINE#         125
  C:1759H         LINE#         126
  C:175DH         LINE#         127
  C:1764H         LINE#         128
  C:1770H         LINE#         130
  C:177DH         LINE#         131
  C:177DH         LINE#         132
  C:1781H         LINE#         133
  C:1788H         LINE#         134
  C:178AH         LINE#         136
  C:178AH         LINE#         137
  C:178EH         LINE#         138
  C:1795H         LINE#         139
  C:1795H         LINE#         140
  C:179CH         LINE#         141
  C:179CH         LINE#         142
  C:17A0H         LINE#         143
  C:17A7H         LINE#         144
  C:17A9H         LINE#         146
  C:17A9H         LINE#         147
  C:17ADH         LINE#         148
  C:17B4H         LINE#         149
  C:17B4H         LINE#         151
  C:17C9H         LINE#         153
  C:17CCH         LINE#         154
BL51 BANKED LINKER/LOCATER V6.22.4.0                                                  05/10/2024  15:28:54  PAGE 36


  C:17CCH         LINE#         156
  C:17D1H         LINE#         157
  C:17D1H         LINE#         163
  C:17DBH         LINE#         164
  C:17F1H         LINE#         165
  C:1807H         LINE#         166
  C:181DH         LINE#         168
  C:1820H         LINE#         169
  C:1820H         LINE#         171
  C:1825H         LINE#         172
  C:1825H         LINE#         173
  C:182CH         LINE#         174
  C:1833H         LINE#         175
  C:183FH         LINE#         177
  C:184BH         LINE#         178
  C:184BH         LINE#         179
  C:184FH         LINE#         180
  C:1856H         LINE#         181
  C:1858H         LINE#         183
  C:1858H         LINE#         184
  C:185CH         LINE#         185
  C:1863H         LINE#         186
  C:1863H         LINE#         188
  C:1878H         LINE#         190
  C:187BH         LINE#         191
  C:187BH         LINE#         193
  C:1880H         LINE#         194
  C:1880H         LINE#         195
  C:1887H         LINE#         196
  C:188EH         LINE#         197
  C:189AH         LINE#         199
  C:18A6H         LINE#         200
  C:18A6H         LINE#         201
  C:18AAH         LINE#         202
  C:18B1H         LINE#         203
  C:18B3H         LINE#         205
  C:18B3H         LINE#         206
  C:18B7H         LINE#         207
  C:18BEH         LINE#         208
  C:18BEH         LINE#         210
  C:18D3H         LINE#         212
  C:18D6H         LINE#         213
  C:18D6H         LINE#         215
  C:18DBH         LINE#         216
  C:18DBH         LINE#         217
  C:18E2H         LINE#         218
  C:18E9H         LINE#         219
  C:18F5H         LINE#         221
  C:1901H         LINE#         222
  C:1901H         LINE#         223
  C:1905H         LINE#         224
  C:190CH         LINE#         225
  C:190EH         LINE#         227
  C:190EH         LINE#         228
  C:1912H         LINE#         229
  C:1919H         LINE#         230
  C:1919H         LINE#         232
BL51 BANKED LINKER/LOCATER V6.22.4.0                                                  05/10/2024  15:28:54  PAGE 37


  C:192EH         LINE#         234
  C:1930H         LINE#         235
  C:1930H         LINE#         237
  C:1935H         LINE#         238
  C:1935H         LINE#         239
  C:193CH         LINE#         240
  C:1943H         LINE#         241
  C:194FH         LINE#         243
  C:195BH         LINE#         244
  C:195BH         LINE#         245
  C:195FH         LINE#         246
  C:1966H         LINE#         247
  C:1968H         LINE#         249
  C:1968H         LINE#         250
  C:196CH         LINE#         251
  C:1973H         LINE#         252
  C:1973H         LINE#         254
  C:1989H         LINE#         256
  C:198CH         LINE#         257
  C:198CH         LINE#         259
  C:1991H         LINE#         260
  C:1991H         LINE#         266
  C:199BH         LINE#         267
  C:19AEH         LINE#         268
  C:19C4H         LINE#         269
  C:19DAH         LINE#         271
  C:19DDH         LINE#         272
  C:19DDH         LINE#         274
  C:19DFH         LINE#         275
  -------         ENDPROC       _PWM_CONFIGURATION
  -------         PROC          _UPDATEPWM
  D:0007H         SYMBOL        PWM
  D:0001H         SYMBOL        PWMx
  C:22CDH         LINE#         284
  C:22CDH         LINE#         285
  C:22CDH         LINE#         286
  C:230BH         LINE#         287
  C:230BH         LINE#         288
  C:230BH         LINE#         289
  C:2315H         LINE#         290
  C:2318H         LINE#         292
  C:2318H         LINE#         293
  C:2325H         LINE#         294
  C:2328H         LINE#         296
  C:2328H         LINE#         297
  C:2335H         LINE#         298
  C:2338H         LINE#         300
  C:2338H         LINE#         301
  C:2345H         LINE#         302
  C:2348H         LINE#         304
  C:2348H         LINE#         305
  C:2355H         LINE#         306
  C:2358H         LINE#         308
  C:2358H         LINE#         309
  C:2365H         LINE#         310
  C:2368H         LINE#         312
  C:2368H         LINE#         313
BL51 BANKED LINKER/LOCATER V6.22.4.0                                                  05/10/2024  15:28:54  PAGE 38


  C:2375H         LINE#         314
  C:2378H         LINE#         316
  C:2378H         LINE#         317
  C:2385H         LINE#         318
  C:2388H         LINE#         320
  C:2388H         LINE#         321
  C:2398H         LINE#         322
  C:23ABH         LINE#         323
  C:23BEH         LINE#         324
  C:23CBH         LINE#         325
  C:23CDH         LINE#         327
  C:23CDH         LINE#         328
  C:23E0H         LINE#         329
  C:23F3H         LINE#         330
  C:2406H         LINE#         331
  C:2419H         LINE#         332
  C:2419H         LINE#         333
  C:2419H         LINE#         334
  -------         ENDPROC       _UPDATEPWM
  -------         ENDMOD        STC8H_PWM

  -------         MODULE        UART
  C:0000H         SYMBOL        _ICE_DUMMY_
  C:0AF8H         PUBLIC        _UART_Configuration
  D:0080H         PUBLIC        P0
  D:0090H         PUBLIC        P1
  D:00A0H         PUBLIC        P2
  D:00B0H         PUBLIC        P3
  D:00C0H         PUBLIC        P4
  D:00C8H         PUBLIC        P5
  D:00E8H         PUBLIC        P6
  D:00F8H         PUBLIC        P7
  D:00A8H         PUBLIC        IE
  X:0000H         PUBLIC        COM1
  X:0005H         PUBLIC        COM2
  X:000AH         PUBLIC        COM3
  X:000FH         PUBLIC        COM4
  D:008FH         PUBLIC        INTCLKO
  D:00B8H         PUBLIC        IP
  X:0014H         PUBLIC        RX1_Buffer
  X:0094H         PUBLIC        RX2_Buffer
  X:0114H         PUBLIC        RX3_Buffer
  X:0154H         PUBLIC        TX1_Buffer
  X:01D4H         PUBLIC        RX4_Buffer
  X:01F4H         PUBLIC        TX2_Buffer
  X:0274H         PUBLIC        TX3_Buffer
  X:02B4H         PUBLIC        TX4_Buffer
  D:0099H         PUBLIC        SBUF
  D:0087H         PUBLIC        PCON
  D:0098H         PUBLIC        SCON
  D:0089H         PUBLIC        TMOD
  D:0088H         PUBLIC        TCON
  C:37CEH         PUBLIC        _PrintString1
  C:37E1H         PUBLIC        _PrintString2
  C:37F4H         PUBLIC        _PrintString3
  C:3807H         PUBLIC        _PrintString4
  D:00AFH         PUBLIC        IE2
BL51 BANKED LINKER/LOCATER V6.22.4.0                                                  05/10/2024  15:28:54  PAGE 39


  D:008EH         PUBLIC        AUXR
  C:385EH         PUBLIC        _TX1_write2buff
  C:386DH         PUBLIC        _TX2_write2buff
  C:387CH         PUBLIC        _TX3_write2buff
  C:388BH         PUBLIC        _TX4_write2buff
  B:00A8H.3       PUBLIC        ET1
  D:008DH         PUBLIC        TH1
  D:00D6H         PUBLIC        T2H
  D:00D4H         PUBLIC        T3H
  D:00D2H         PUBLIC        T4H
  D:008BH         PUBLIC        TL1
  D:00D7H         PUBLIC        T2L
  D:00D5H         PUBLIC        T3L
  D:00D3H         PUBLIC        T4L
  B:0088H.6       PUBLIC        TR1
  D:00D1H         PUBLIC        T4T3M
  D:009BH         PUBLIC        S2BUF
  D:00ADH         PUBLIC        S3BUF
  B:0098H.4       PUBLIC        REN
  D:0085H         PUBLIC        S4BUF
  D:009AH         PUBLIC        S2CON
  D:00ACH         PUBLIC        S3CON
  D:0084H         PUBLIC        S4CON
  D:00D0H         PUBLIC        PSW
  C:008EH         PUBLIC        _putchar
  -------         PROC          _UART_CONFIGURATION
  X:0318H         SYMBOL        UARTx
  X:0319H         SYMBOL        COMx
  -------         DO            
  X:031CH         SYMBOL        i
  X:031EH         SYMBOL        j
  -------         ENDDO         
  C:0AF8H         LINE#         47
  C:0B08H         LINE#         48
  C:0B08H         LINE#         58
  C:0B0FH         LINE#         59
  C:0B0FH         LINE#         60
  C:0B13H         LINE#         61
  C:0B15H         LINE#         62
  C:0B17H         LINE#         63
  C:0B19H         LINE#         64
  C:0B1BH         LINE#         66
  C:0B4DH         LINE#         67
  C:0B80H         LINE#         69
  C:0B96H         LINE#         70
  C:0BA3H         LINE#         71
  C:0BA3H         LINE#         72
  C:0BBAH         LINE#         73
  C:0BD7H         LINE#         74
  C:0BF9H         LINE#         75
  C:0C0FH         LINE#         76
  C:0C0FH         LINE#         77
  C:0C11H         LINE#         78
  C:0C14H         LINE#         79
  C:0C17H         LINE#         80
  C:0C1AH         LINE#         81
  C:0C1DH         LINE#         82
BL51 BANKED LINKER/LOCATER V6.22.4.0                                                  05/10/2024  15:28:54  PAGE 40


  C:0C32H         LINE#         83
  C:0C3BH         LINE#         84
  C:0C3DH         LINE#         85
  C:0C40H         LINE#         86
  C:0C43H         LINE#         87
  C:0C45H         LINE#         88
  C:0C47H         LINE#         89
  C:0C4CH         LINE#         90
  C:0C4CH         LINE#         91
  C:0C4FH         LINE#         92
  C:0C52H         LINE#         93
  C:0C55H         LINE#         94
  C:0C58H         LINE#         95
  C:0C6DH         LINE#         96
  C:0C76H         LINE#         97
  C:0C79H         LINE#         98
  C:0C7CH         LINE#         99
  C:0C7EH         LINE#         100
  C:0C81H         LINE#         101
  C:0C81H         LINE#         102
  C:0C92H         LINE#         103
  C:0C92H         LINE#         104
  C:0CA0H         LINE#         105
  C:0CA3H         LINE#         106
  C:0CA5H         LINE#         107
  C:0CA9H         LINE#         108
  C:0CA9H         LINE#         109
  C:0CB7H         LINE#         110
  C:0CBAH         LINE#         111
  C:0CBAH         LINE#         112
  C:0CD3H         LINE#         114
  C:0CD6H         LINE#         115
  C:0CD6H         LINE#         118
  C:0CE1H         LINE#         119
  C:0CE1H         LINE#         120
  C:0CE5H         LINE#         121
  C:0CE7H         LINE#         122
  C:0CE9H         LINE#         123
  C:0CEBH         LINE#         124
  C:0CEDH         LINE#         126
  C:0D1FH         LINE#         127
  C:0D52H         LINE#         129
  C:0D6DH         LINE#         130
  C:0D6DH         LINE#         131
  C:0D76H         LINE#         132
  C:0D79H         LINE#         133
  C:0D90H         LINE#         134
  C:0DADH         LINE#         135
  C:0DCFH         LINE#         136
  C:0DD2H         LINE#         137
  C:0DD5H         LINE#         138
  C:0DD8H         LINE#         139
  C:0DEDH         LINE#         140
  C:0DF6H         LINE#         141
  C:0DF9H         LINE#         142
  C:0DFCH         LINE#         143
  C:0DFEH         LINE#         144
BL51 BANKED LINKER/LOCATER V6.22.4.0                                                  05/10/2024  15:28:54  PAGE 41


  C:0E01H         LINE#         145
  C:0E1DH         LINE#         147
  C:0E20H         LINE#         148
  C:0E20H         LINE#         151
  C:0E2BH         LINE#         152
  C:0E2BH         LINE#         153
  C:0E2FH         LINE#         154
  C:0E31H         LINE#         155
  C:0E33H         LINE#         156
  C:0E35H         LINE#         157
  C:0E37H         LINE#         158
  C:0E69H         LINE#         159
  C:0E9CH         LINE#         161
  C:0EB7H         LINE#         162
  C:0EB7H         LINE#         163
  C:0EC0H         LINE#         164
  C:0EC3H         LINE#         165
  C:0EDAH         LINE#         166
  C:0EF7H         LINE#         167
  C:0F19H         LINE#         168
  C:0F2FH         LINE#         169
  C:0F2FH         LINE#         170
  C:0F32H         LINE#         171
  C:0F47H         LINE#         172
  C:0F50H         LINE#         173
  C:0F53H         LINE#         174
  C:0F56H         LINE#         175
  C:0F58H         LINE#         176
  C:0F5DH         LINE#         177
  C:0F5DH         LINE#         178
  C:0F60H         LINE#         179
  C:0F63H         LINE#         180
  C:0F66H         LINE#         181
  C:0F69H         LINE#         182
  C:0F7EH         LINE#         183
  C:0F87H         LINE#         184
  C:0F8AH         LINE#         185
  C:0F8DH         LINE#         186
  C:0F8FH         LINE#         187
  C:0F92H         LINE#         188
  C:0F92H         LINE#         189
  C:0F95H         LINE#         190
  C:0FB1H         LINE#         192
  C:0FB4H         LINE#         193
  C:0FB4H         LINE#         196
  C:0FBFH         LINE#         197
  C:0FBFH         LINE#         198
  C:0FC3H         LINE#         199
  C:0FC5H         LINE#         200
  C:0FC7H         LINE#         201
  C:0FC9H         LINE#         202
  C:0FCBH         LINE#         203
  C:0FFDH         LINE#         204
  C:1030H         LINE#         206
  C:104BH         LINE#         207
  C:104BH         LINE#         208
  C:1054H         LINE#         209
BL51 BANKED LINKER/LOCATER V6.22.4.0                                                  05/10/2024  15:28:54  PAGE 42


  C:1057H         LINE#         210
  C:106EH         LINE#         211
  C:108BH         LINE#         212
  C:10ADH         LINE#         213
  C:10C3H         LINE#         214
  C:10C3H         LINE#         215
  C:10C6H         LINE#         216
  C:10DBH         LINE#         217
  C:10E4H         LINE#         218
  C:10E7H         LINE#         219
  C:10EAH         LINE#         220
  C:10ECH         LINE#         221
  C:10F1H         LINE#         222
  C:10F1H         LINE#         223
  C:10F4H         LINE#         224
  C:10F7H         LINE#         225
  C:10FAH         LINE#         226
  C:10FDH         LINE#         227
  C:1112H         LINE#         228
  C:111BH         LINE#         229
  C:111EH         LINE#         230
  C:1121H         LINE#         231
  C:1123H         LINE#         232
  C:1126H         LINE#         233
  C:1126H         LINE#         234
  C:1129H         LINE#         235
  C:1145H         LINE#         237
  C:1148H         LINE#         238
  C:1148H         LINE#         240
  C:114AH         LINE#         241
  -------         ENDPROC       _UART_CONFIGURATION
  -------         PROC          _TX1_WRITE2BUFF
  D:0007H         SYMBOL        dat
  C:385EH         LINE#         247
  C:385EH         LINE#         248
  C:385EH         LINE#         260
  C:3860H         LINE#         261
  C:3866H         LINE#         262
  C:386CH         LINE#         264
  -------         ENDPROC       _TX1_WRITE2BUFF
  -------         PROC          _PRINTSTRING1
  D:0001H         SYMBOL        puts
  C:37CEH         LINE#         266
  C:37CEH         LINE#         267
  C:37CEH         LINE#         268
  C:37E0H         LINE#         269
  -------         ENDPROC       _PRINTSTRING1
  -------         PROC          _TX2_WRITE2BUFF
  D:0007H         SYMBOL        dat
  C:386DH         LINE#         275
  C:386DH         LINE#         276
  C:386DH         LINE#         288
  C:386FH         LINE#         289
  C:3875H         LINE#         290
  C:387BH         LINE#         292
  -------         ENDPROC       _TX2_WRITE2BUFF
  -------         PROC          _PRINTSTRING2
BL51 BANKED LINKER/LOCATER V6.22.4.0                                                  05/10/2024  15:28:54  PAGE 43


  D:0001H         SYMBOL        puts
  C:37E1H         LINE#         294
  C:37E1H         LINE#         295
  C:37E1H         LINE#         296
  C:37F3H         LINE#         297
  -------         ENDPROC       _PRINTSTRING2
  -------         PROC          _TX3_WRITE2BUFF
  D:0007H         SYMBOL        dat
  C:387CH         LINE#         303
  C:387CH         LINE#         304
  C:387CH         LINE#         316
  C:387EH         LINE#         317
  C:3884H         LINE#         318
  C:388AH         LINE#         320
  -------         ENDPROC       _TX3_WRITE2BUFF
  -------         PROC          _PRINTSTRING3
  D:0001H         SYMBOL        puts
  C:37F4H         LINE#         322
  C:37F4H         LINE#         323
  C:37F4H         LINE#         324
  C:3806H         LINE#         325
  -------         ENDPROC       _PRINTSTRING3
  -------         PROC          _TX4_WRITE2BUFF
  D:0007H         SYMBOL        dat
  C:388BH         LINE#         331
  C:388BH         LINE#         332
  C:388BH         LINE#         344
  C:388DH         LINE#         345
  C:3893H         LINE#         346
  C:3899H         LINE#         348
  -------         ENDPROC       _TX4_WRITE2BUFF
  -------         PROC          _PRINTSTRING4
  D:0001H         SYMBOL        puts
  C:3807H         LINE#         350
  C:3807H         LINE#         351
  C:3807H         LINE#         352
  C:3819H         LINE#         353
  -------         ENDPROC       _PRINTSTRING4
  -------         PROC          _PUTCHAR
  D:0006H         SYMBOL        c
  C:008EH         LINE#         376
  C:0090H         LINE#         377
  C:0090H         LINE#         378
  -------         ENDPROC       _PUTCHAR
  -------         ENDMOD        UART

  -------         MODULE        LIGHT
  C:0000H         SYMBOL        _ICE_DUMMY_
  D:0093H         PUBLIC        P0M1
  D:0080H         PUBLIC        P0
  D:0090H         PUBLIC        P1
  D:00A0H         PUBLIC        P2
  D:00CAH         PUBLIC        P5M0
  D:00B0H         PUBLIC        P3
  D:00C9H         PUBLIC        P5M1
  D:00C0H         PUBLIC        P4
  D:00C8H         PUBLIC        P5
BL51 BANKED LINKER/LOCATER V6.22.4.0                                                  05/10/2024  15:28:54  PAGE 44


  D:00E8H         PUBLIC        P6
  D:00F8H         PUBLIC        P7
  D:00A8H         PUBLIC        IE
  C:382DH         PUBLIC        Light_init
  C:3790H         PUBLIC        _Light_off
  D:00B8H         PUBLIC        IP
  D:0098H         PUBLIC        SCON
  D:0088H         PUBLIC        TCON
  B:00C8H.2       PUBLIC        P52
  B:0080H.7       PUBLIC        P07
  C:377AH         PUBLIC        _Light_on
  D:00D0H         PUBLIC        PSW
  D:0094H         PUBLIC        P0M0
  -------         PROC          LIGHT_INIT
  C:382DH         LINE#         4
  C:382DH         LINE#         5
  C:3839H         LINE#         8
  -------         ENDPROC       LIGHT_INIT
  -------         PROC          _LIGHT_ON
  D:0007H         SYMBOL        light
  C:377AH         LINE#         13
  C:377AH         LINE#         14
  C:3785H         LINE#         15
  C:3785H         LINE#         16
  C:3787H         LINE#         17
  C:3789H         LINE#         18
  C:378AH         LINE#         19
  C:378AH         LINE#         20
  C:378CH         LINE#         21
  C:378DH         LINE#         22
  C:378DH         LINE#         23
  C:378FH         LINE#         24
  C:378FH         LINE#         25
  C:378FH         LINE#         26
  C:378FH         LINE#         27
  C:378FH         LINE#         28
  -------         ENDPROC       _LIGHT_ON
  -------         PROC          _LIGHT_OFF
  D:0007H         SYMBOL        light
  C:3790H         LINE#         31
  C:3790H         LINE#         32
  C:379BH         LINE#         33
  C:379BH         LINE#         34
  C:379DH         LINE#         35
  C:379FH         LINE#         36
  C:37A0H         LINE#         37
  C:37A0H         LINE#         38
  C:37A2H         LINE#         39
  C:37A3H         LINE#         40
  C:37A3H         LINE#         41
  C:37A5H         LINE#         42
  C:37A5H         LINE#         43
  C:37A5H         LINE#         44
  C:37A5H         LINE#         45
  C:37A5H         LINE#         47
  -------         ENDPROC       _LIGHT_OFF
  -------         ENDMOD        LIGHT
BL51 BANKED LINKER/LOCATER V6.22.4.0                                                  05/10/2024  15:28:54  PAGE 45



  -------         MODULE        KEY
  C:0000H         SYMBOL        _ICE_DUMMY_
  D:0080H         PUBLIC        P0
  D:0090H         PUBLIC        P1
  D:00A0H         PUBLIC        P2
  D:00B0H         PUBLIC        P3
  D:00C0H         PUBLIC        P4
  D:00C8H         PUBLIC        P5
  D:00E8H         PUBLIC        P6
  D:00F8H         PUBLIC        P7
  C:381AH         SYMBOL        _GPIO_config
  D:00A8H         PUBLIC        IE
  D:00B8H         PUBLIC        IP
  C:36CCH         PUBLIC        Key_scan
  D:0098H         PUBLIC        SCON
  D:0088H         PUBLIC        TCON
  B:0080H.5       PUBLIC        P05
  C:38F3H         PUBLIC        Key_init
  X:0439H         PUBLIC        last_key_state
  D:00D0H         PUBLIC        PSW
  -------         PROC          _GPIO_CONFIG
  D:0007H         SYMBOL        gpio
  D:0005H         SYMBOL        pin
  -------         DO            
  X:02E7H         SYMBOL        GPIO_InitStructure
  -------         ENDDO         
  C:381AH         LINE#         3
  C:381AH         LINE#         5
  C:381FH         LINE#         7
  C:3824H         LINE#         8
  -------         ENDPROC       _GPIO_CONFIG
  -------         PROC          KEY_INIT
  C:38F3H         LINE#         12
  C:38F3H         LINE#         13
  C:38FAH         LINE#         15
  C:38FCH         LINE#         16
  -------         ENDPROC       KEY_INIT
  -------         PROC          KEY_SCAN
  C:36CCH         LINE#         19
  C:36CCH         LINE#         22
  C:36D8H         LINE#         24
  C:36DDH         LINE#         26
  C:36E0H         LINE#         27
  C:36E3H         LINE#         28
  C:36E3H         LINE#         29
  C:36E6H         LINE#         30
  C:36E6H         LINE#         31
  C:36E6H         LINE#         32
  -------         ENDPROC       KEY_SCAN
  -------         ENDMOD        KEY

  -------         MODULE        BATTERY
  C:0000H         SYMBOL        _ICE_DUMMY_
  D:0080H         PUBLIC        P0
  D:0090H         PUBLIC        P1
  D:00A0H         PUBLIC        P2
BL51 BANKED LINKER/LOCATER V6.22.4.0                                                  05/10/2024  15:28:54  PAGE 46


  D:00B0H         PUBLIC        P3
  D:00C0H         PUBLIC        P4
  D:00C8H         PUBLIC        P5
  D:00E8H         PUBLIC        P6
  D:00F8H         PUBLIC        P7
  C:000EH         SYMBOL        GPIO_config
  D:00A8H         PUBLIC        IE
  D:00B8H         PUBLIC        IP
  C:35B0H         PUBLIC        ADC_config
  D:0098H         PUBLIC        SCON
  D:0088H         PUBLIC        TCON
  C:2E49H         PUBLIC        Battery_get_voltage
  C:390BH         PUBLIC        Battery_init
  D:00D0H         PUBLIC        PSW
  -------         PROC          GPIO_CONFIG
  -------         DO            
  X:03AFH         SYMBOL        GPIO_InitStructure
  -------         ENDDO         
  C:000EH         LINE#         6
  C:000EH         LINE#         8
  C:0014H         LINE#         9
  C:001AH         LINE#         10
  -------         ENDPROC       GPIO_CONFIG
  -------         PROC          ADC_CONFIG
  -------         DO            
  X:03AFH         SYMBOL        ADC_InitStructure
  -------         ENDDO         
  C:35B0H         LINE#         14
  C:35B0H         LINE#         15
  C:35B0H         LINE#         18
  C:35B6H         LINE#         19
  C:35BBH         LINE#         20
  C:35BEH         LINE#         21
  C:35C3H         LINE#         22
  C:35C6H         LINE#         23
  C:35CEH         LINE#         24
  C:35D3H         LINE#         25
  -------         ENDPROC       ADC_CONFIG
  -------         PROC          BATTERY_INIT
  C:390BH         LINE#         28
  C:390BH         LINE#         29
  C:390EH         LINE#         30
  -------         ENDPROC       BATTERY_INIT
  -------         PROC          BATTERY_GET_VOLTAGE
  -------         DO            
  X:03AFH         SYMBOL        voltage
  D:0006H         SYMBOL        adc_value
  -------         ENDDO         
  C:2E49H         LINE#         33
  C:2E49H         LINE#         36
  C:2E4EH         LINE#         38
  C:2E71H         LINE#         40
  C:2E8FH         LINE#         42
  C:2E9DH         LINE#         43
  -------         ENDPROC       BATTERY_GET_VOLTAGE
  -------         ENDMOD        BATTERY

BL51 BANKED LINKER/LOCATER V6.22.4.0                                                  05/10/2024  15:28:54  PAGE 47


  -------         MODULE        BUZZER
  C:0000H         SYMBOL        _ICE_DUMMY_
  C:3916H         PUBLIC        Buzzer_close
  D:0080H         PUBLIC        P0
  D:00B2H         PUBLIC        P3M0
  D:0090H         PUBLIC        P1
  D:00B1H         PUBLIC        P3M1
  D:00A0H         PUBLIC        P2
  D:00B0H         PUBLIC        P3
  D:00C0H         PUBLIC        P4
  C:37BAH         PUBLIC        Buzzer_beep
  D:00C8H         PUBLIC        P5
  D:00E8H         PUBLIC        P6
  D:00F8H         PUBLIC        P7
  X:03F3H         PUBLIC        dutyB
  D:00A8H         PUBLIC        IE
  D:00B8H         PUBLIC        IP
  C:3911H         PUBLIC        Buzzer_open
  C:38A8H         PUBLIC        Buzzer_init
  C:31A9H         PUBLIC        _Buzzer_play
  D:0098H         PUBLIC        SCON
  D:0088H         PUBLIC        TCON
  B:00B0H.4       PUBLIC        P34
  C:2CE9H         PUBLIC        _PWM_config
  C:38B6H         PUBLIC        Delay100us
  D:00D0H         PUBLIC        PSW
  -------         PROC          _PWM_CONFIG
  D:0007H         SYMBOL        enable
  -------         DO            
  X:03B3H         SYMBOL        PWMx_InitStructure
  -------         ENDDO         
  C:2CE9H         LINE#         16
  C:2CE9H         LINE#         17
  C:2CE9H         LINE#         21
  C:2CEFH         LINE#         22
  C:2CF9H         LINE#         23
  C:2D07H         LINE#         24
  C:2D12H         LINE#         27
  C:2D1CH         LINE#         28
  C:2D21H         LINE#         29
  C:2D26H         LINE#         30
  C:2D2AH         LINE#         31
  C:2D34H         LINE#         34
  C:2D3DH         LINE#         37
  -------         ENDPROC       _PWM_CONFIG
  -------         PROC          BUZZER_INIT
  C:38A8H         LINE#         40
  C:38A8H         LINE#         41
  C:38AEH         LINE#         43
  C:38B3H         LINE#         45
  C:38B5H         LINE#         46
  -------         ENDPROC       BUZZER_INIT
  -------         PROC          BUZZER_OPEN
  C:3911H         LINE#         49
  C:3911H         LINE#         51
  -------         ENDPROC       BUZZER_OPEN
  -------         PROC          BUZZER_CLOSE
BL51 BANKED LINKER/LOCATER V6.22.4.0                                                  05/10/2024  15:28:54  PAGE 48


  C:3916H         LINE#         55
  C:3916H         LINE#         57
  -------         ENDPROC       BUZZER_CLOSE
  -------         PROC          _BUZZER_PLAY
  X:03AFH         SYMBOL        count
  X:03B0H         SYMBOL        gap
  -------         DO            
  X:03B2H         SYMBOL        i
  -------         ENDDO         
  C:31A9H         LINE#         61
  C:31B4H         LINE#         63
  C:31C4H         LINE#         64
  C:31C7H         LINE#         66
  C:31CEH         LINE#         68
  C:31D1H         LINE#         70
  C:31E7H         LINE#         71
  C:31EFH         LINE#         72
  -------         ENDPROC       _BUZZER_PLAY
  -------         PROC          DELAY100US
  -------         DO            
  D:001DH         SYMBOL        i
  D:001EH         SYMBOL        j
  -------         ENDDO         
  C:38B6H         LINE#         74
  C:38B6H         LINE#         75
  C:38B6H         LINE#         78
  C:38B9H         LINE#         79
  C:38BCH         LINE#         81
  C:38BCH         LINE#         82
  C:38BFH         LINE#         83
  C:38C2H         LINE#         84
  -------         ENDPROC       DELAY100US
  -------         PROC          BUZZER_BEEP
  -------         DO            
  D:0006H         SYMBOL        i
  -------         ENDDO         
  C:37BAH         LINE#         87
  C:37BAH         LINE#         89
  C:37BDH         LINE#         90
  C:37BFH         LINE#         93
  C:37C2H         LINE#         94
  C:37CDH         LINE#         96
  -------         ENDPROC       BUZZER_BEEP
  -------         ENDMOD        BUZZER

  -------         MODULE        ULTRASONIC
  C:0000H         SYMBOL        _ICE_DUMMY_
  C:241AH         PUBLIC        _Ultrasonic_get_distance
  D:0080H         PUBLIC        P0
  D:00B2H         PUBLIC        P3M0
  D:0090H         PUBLIC        P1
  D:00B4H         PUBLIC        P4M0
  D:00B1H         PUBLIC        P3M1
  D:00A0H         PUBLIC        P2
  D:00B3H         PUBLIC        P4M1
  D:00B0H         PUBLIC        P3
  D:00C0H         PUBLIC        P4
BL51 BANKED LINKER/LOCATER V6.22.4.0                                                  05/10/2024  15:28:54  PAGE 49


  D:00C8H         PUBLIC        P5
  D:00E8H         PUBLIC        P6
  D:00F8H         PUBLIC        P7
  D:00A8H         PUBLIC        IE
  D:00B8H         PUBLIC        IP
  D:0098H         PUBLIC        SCON
  D:0088H         PUBLIC        TCON
  B:00B0H.3       PUBLIC        P33
  B:00C0H.7       PUBLIC        P47
  C:38FDH         PUBLIC        Delay10us
  C:383EH         PUBLIC        Ultrasonic_init
  D:00D0H         PUBLIC        PSW
  -------         PROC          ULTRASONIC_INIT
  C:383EH         LINE#         5
  C:383EH         LINE#         6
  C:384AH         LINE#         9
  C:384CH         LINE#         11
  C:384EH         LINE#         13
  -------         ENDPROC       ULTRASONIC_INIT
  -------         PROC          DELAY10US
  -------         DO            
  D:0013H         SYMBOL        i
  -------         ENDDO         
  C:38FDH         LINE#         14
  C:38FDH         LINE#         15
  C:38FDH         LINE#         18
  C:3900H         LINE#         19
  C:3903H         LINE#         20
  -------         ENDPROC       DELAY10US
  -------         PROC          _ULTRASONIC_GET_DISTANCE
  X:0376H         SYMBOL        distance
  -------         DO            
  X:0379H         SYMBOL        cnt_10us
  X:037BH         SYMBOL        calc_dis
  -------         ENDDO         
  C:241AH         LINE#         25
  C:2425H         LINE#         26
  C:242AH         LINE#         27
  C:2432H         LINE#         30
  C:2434H         LINE#         31
  C:2437H         LINE#         32
  C:243AH         LINE#         33
  C:243CH         LINE#         36
  C:243FH         LINE#         39
  C:2451H         LINE#         40
  C:2454H         LINE#         41
  C:2460H         LINE#         42
  C:2462H         LINE#         44
  C:247AH         LINE#         45
  C:2496H         LINE#         46
  C:2499H         LINE#         47
  C:2499H         LINE#         52
  C:24A0H         LINE#         53
  C:24A3H         LINE#         54
  C:24A6H         LINE#         55
  C:24B4H         LINE#         56
  C:24B6H         LINE#         59
BL51 BANKED LINKER/LOCATER V6.22.4.0                                                  05/10/2024  15:28:54  PAGE 50


  C:24DCH         LINE#         65
  C:24F9H         LINE#         67
  C:2515H         LINE#         69
  C:252EH         LINE#         70
  C:2531H         LINE#         71
  C:254DH         LINE#         72
  C:2550H         LINE#         73
  C:2550H         LINE#         75
  C:2552H         LINE#         76
  -------         ENDPROC       _ULTRASONIC_GET_DISTANCE
  -------         ENDMOD        ULTRASONIC

  -------         MODULE        MOTORS
  C:0000H         SYMBOL        _ICE_DUMMY_
  D:0092H         PUBLIC        P1M0
  D:0096H         PUBLIC        P2M0
  D:0091H         PUBLIC        P1M1
  D:0080H         PUBLIC        P0
  D:0095H         PUBLIC        P2M1
  D:0090H         PUBLIC        P1
  D:00A0H         PUBLIC        P2
  D:00B0H         PUBLIC        P3
  D:00C0H         PUBLIC        P4
  D:00C8H         PUBLIC        P5
  D:00E8H         PUBLIC        P6
  D:00F8H         PUBLIC        P7
  X:03DFH         PUBLIC        dutyA
  C:28E1H         PUBLIC        _Motors_right
  D:00A8H         PUBLIC        IE
  C:0033H         PUBLIC        _speed2duty
  C:27B7H         PUBLIC        _Motors_left
  D:00B8H         PUBLIC        IP
  C:38C3H         PUBLIC        Motors_init
  C:2553H         PUBLIC        _Motors_move
  C:2EABH         PUBLIC        _clip
  C:2D9DH         PUBLIC        _Motors_backward
  C:35D9H         PUBLIC        Motors_stop
  D:0098H         PUBLIC        SCON
  D:0088H         PUBLIC        TCON
  C:3601H         SYMBOL        _?ix1000
  C:3609H         SYMBOL        _?ix1001
  C:3611H         SYMBOL        _?ix1002
  C:3619H         SYMBOL        _?ix1003
  C:3621H         SYMBOL        _?ix1004
  X:03EFH         PUBLIC        max_ratio
  C:1F17H         PUBLIC        PWM_config
  C:34FBH         PUBLIC        _Motors_forward
  C:284FH         PUBLIC        _Motors_around
  D:00D0H         PUBLIC        PSW
  C:002EH         SYMBOL        L?0055
  -------         PROC          L?0054
  -------         ENDPROC       L?0054
  C:002EH         SYMBOL        L?0055
  -------         PROC          _SPEED2DUTY
  D:0006H         SYMBOL        speed
  C:0033H         LINE#         23
  C:0033H         LINE#         37
BL51 BANKED LINKER/LOCATER V6.22.4.0                                                  05/10/2024  15:28:54  PAGE 51


  C:0042H         LINE#         38
  -------         ENDPROC       _SPEED2DUTY
  -------         PROC          PWM_CONFIG
  X:0355H         SYMBOL        cfg
  -------         DO            
  X:035DH         SYMBOL        PWMx_InitStructure
  X:0366H         SYMBOL        LQ_duty
  X:0368H         SYMBOL        RQ_duty
  D:0002H         SYMBOL        LH_duty
  X:036AH         SYMBOL        RH_duty
  X:036CH         SYMBOL        is_LQ_enable
  X:036DH         SYMBOL        is_RQ_enable
  X:036EH         SYMBOL        is_LH_enable
  X:036FH         SYMBOL        is_RH_enable
  X:0370H         SYMBOL        is_main_enable
  -------         ENDDO         
  C:1F17H         LINE#         42
  C:1F17H         LINE#         43
  C:1F17H         LINE#         47
  C:1F25H         LINE#         48
  C:1F33H         LINE#         49
  C:1F3DH         LINE#         50
  C:1F49H         LINE#         52
  C:1F5EH         LINE#         53
  C:1F73H         LINE#         54
  C:1F88H         LINE#         55
  C:1F9DH         LINE#         57
  C:1FBAH         LINE#         60
  C:1FC0H         LINE#         61
  C:1FE5H         LINE#         62
  C:1FF6H         LINE#         63
  C:2001H         LINE#         65
  C:2007H         LINE#         66
  C:2030H         LINE#         67
  C:2041H         LINE#         68
  C:204CH         LINE#         70
  C:2052H         LINE#         71
  C:207BH         LINE#         72
  C:208CH         LINE#         73
  C:2097H         LINE#         75
  C:209DH         LINE#         76
  C:20C6H         LINE#         77
  C:20D7H         LINE#         78
  C:20E2H         LINE#         81
  C:20ECH         LINE#         82
  C:20F1H         LINE#         83
  C:20F9H         LINE#         84
  C:20FDH         LINE#         85
  C:2108H         LINE#         88
  C:2111H         LINE#         89
  C:2117H         LINE#         90
  C:211BH         LINE#         91
  C:211FH         LINE#         94
  -------         ENDPROC       PWM_CONFIG
  -------         PROC          MOTORS_INIT
  C:38C3H         LINE#         96
  C:38C3H         LINE#         99
BL51 BANKED LINKER/LOCATER V6.22.4.0                                                  05/10/2024  15:28:54  PAGE 52


  C:38C9H         LINE#         100
  C:38CFH         LINE#         102
  -------         ENDPROC       MOTORS_INIT
  -------         PROC          _MOTORS_FORWARD
  D:0006H         SYMBOL        speed
  -------         DO            
  X:0349H         SYMBOL        cfg
  -------         ENDDO         
  C:34FBH         LINE#         105
  C:34FBH         LINE#         110
  C:3503H         LINE#         111
  C:3509H         LINE#         112
  C:350FH         LINE#         113
  C:3515H         LINE#         114
  -------         ENDPROC       _MOTORS_FORWARD
  -------         PROC          _MOTORS_BACKWARD
  X:041BH         SYMBOL        speed
  -------         DO            
  X:041DH         SYMBOL        cfg
  -------         ENDDO         
  C:2D9DH         LINE#         117
  C:2DA5H         LINE#         119
  C:2DB8H         LINE#         122
  C:2DCCH         LINE#         123
  C:2DD2H         LINE#         124
  C:2DD8H         LINE#         125
  C:2DDEH         LINE#         126
  -------         ENDPROC       _MOTORS_BACKWARD
  -------         PROC          _MOTORS_LEFT
  X:0403H         SYMBOL        speed
  X:0405H         SYMBOL        dir
  -------         DO            
  X:0407H         SYMBOL        cfg
  -------         ENDDO         
  C:27B7H         LINE#         131
  C:27C5H         LINE#         132
  C:27D8H         LINE#         135
  C:27E5H         LINE#         136
  C:27F5H         LINE#         137
  C:27FBH         LINE#         138
  C:2803H         LINE#         139
  C:280BH         LINE#         140
  C:280BH         LINE#         141
  C:280DH         LINE#         142
  C:281DH         LINE#         143
  C:2823H         LINE#         144
  C:2831H         LINE#         145
  C:2839H         LINE#         146
  C:2839H         LINE#         148
  -------         ENDPROC       _MOTORS_LEFT
  -------         PROC          _MOTORS_RIGHT
  X:040FH         SYMBOL        speed
  X:0411H         SYMBOL        dir
  -------         DO            
  X:0413H         SYMBOL        cfg
  -------         ENDDO         
  C:28E1H         LINE#         153
BL51 BANKED LINKER/LOCATER V6.22.4.0                                                  05/10/2024  15:28:54  PAGE 53


  C:28EFH         LINE#         154
  C:2902H         LINE#         157
  C:2913H         LINE#         158
  C:2923H         LINE#         159
  C:292BH         LINE#         160
  C:292BH         LINE#         162
  C:293EH         LINE#         163
  C:2954H         LINE#         164
  C:295AH         LINE#         165
  C:295AH         LINE#         167
  -------         ENDPROC       _MOTORS_RIGHT
  -------         PROC          _MOTORS_AROUND
  X:0349H         SYMBOL        speed
  X:034BH         SYMBOL        dir
  -------         DO            
  X:034DH         SYMBOL        cfg
  -------         ENDDO         
  C:284FH         LINE#         172
  C:285DH         LINE#         173
  C:2870H         LINE#         174
  C:287FH         LINE#         175
  C:288CH         LINE#         176
  C:2894H         LINE#         177
  C:289EH         LINE#         178
  C:289EH         LINE#         179
  C:28A0H         LINE#         180
  C:28B3H         LINE#         181
  C:28BBH         LINE#         182
  C:28C3H         LINE#         183
  C:28CBH         LINE#         184
  C:28CBH         LINE#         186
  -------         ENDPROC       _MOTORS_AROUND
  C:2E9EH         SYMBOL        L?0053
  -------         PROC          L?0052
  -------         ENDPROC       L?0052
  C:2E9EH         SYMBOL        L?0053
  -------         PROC          _CLIP
  X:0321H         SYMBOL        value
  X:0323H         SYMBOL        min
  D:0002H         SYMBOL        max
  C:2EABH         LINE#         188
  C:2EB9H         LINE#         189
  C:2ED5H         LINE#         190
  C:2ED6H         LINE#         191
  C:2EE3H         LINE#         192
  C:2EE8H         LINE#         193
  C:2EE8H         LINE#         194
  C:2EF0H         LINE#         195
  -------         ENDPROC       _CLIP
  -------         PROC          _MOTORS_MOVE
  X:0315H         SYMBOL        x
  X:0317H         SYMBOL        y
  -------         DO            
  X:0319H         SYMBOL        cfg
  -------         ENDDO         
  C:2553H         LINE#         210
  C:2561H         LINE#         211
BL51 BANKED LINKER/LOCATER V6.22.4.0                                                  05/10/2024  15:28:54  PAGE 54


  C:2574H         LINE#         216
  C:258CH         LINE#         217
  C:25A2H         LINE#         218
  C:25AAH         LINE#         219
  C:25B2H         LINE#         222
  C:25DCH         LINE#         223
  C:2606H         LINE#         224
  C:2630H         LINE#         225
  C:265AH         LINE#         226
  -------         ENDPROC       _MOTORS_MOVE
  -------         PROC          MOTORS_STOP
  -------         DO            
  X:0349H         SYMBOL        cfg
  -------         ENDDO         
  C:35D9H         LINE#         229
  C:35D9H         LINE#         233
  C:35E0H         LINE#         234
  C:35E4H         LINE#         235
  C:35E8H         LINE#         236
  C:35ECH         LINE#         237
  -------         ENDPROC       MOTORS_STOP
  -------         ENDMOD        MOTORS

  -------         MODULE        TRACKER
  C:0000H         SYMBOL        _ICE_DUMMY_
  D:0093H         PUBLIC        P0M1
  D:0080H         PUBLIC        P0
  D:0090H         PUBLIC        P1
  D:00A0H         PUBLIC        P2
  D:00B0H         PUBLIC        P3
  D:00C0H         PUBLIC        P4
  D:00C8H         PUBLIC        P5
  D:00E8H         PUBLIC        P6
  D:00F8H         PUBLIC        P7
  D:00A8H         PUBLIC        IE
  D:00B8H         PUBLIC        IP
  B:0080H.1       PUBLIC        P01
  B:0080H.2       PUBLIC        P02
  B:0080H.3       PUBLIC        P03
  D:0098H         PUBLIC        SCON
  D:0088H         PUBLIC        TCON
  C:2C29H         PUBLIC        Tracker_get_position
  C:36E7H         PUBLIC        _Tracker_scan
  C:3904H         PUBLIC        Tracker_init
  D:00D0H         PUBLIC        PSW
  D:0094H         PUBLIC        P0M0
  -------         PROC          TRACKER_INIT
  C:3904H         LINE#         4
  C:3904H         LINE#         7
  C:390AH         LINE#         8
  -------         ENDPROC       TRACKER_INIT
  -------         PROC          _TRACKER_SCAN
  D:0001H         SYMBOL        states
  C:36E7H         LINE#         13
  C:36E7H         LINE#         14
  C:36EEH         LINE#         15
  C:36F8H         LINE#         16
BL51 BANKED LINKER/LOCATER V6.22.4.0                                                  05/10/2024  15:28:54  PAGE 55


  -------         ENDPROC       _TRACKER_SCAN
  -------         PROC          TRACKER_GET_POSITION
  -------         DO            
  X:0349H         SYMBOL        sum
  D:0006H         SYMBOL        count
  D:0004H         SYMBOL        pos
  X:0437H         SYMBOL        last_pos
  -------         ENDDO         
  C:2C29H         LINE#         23
  C:2C29H         LINE#         25
  C:2C32H         LINE#         29
  C:2C35H         LINE#         30
  C:2C40H         LINE#         31
  C:2C45H         LINE#         32
  C:2C45H         LINE#         33
  C:2C48H         LINE#         34
  C:2C48H         LINE#         35
  C:2C4DH         LINE#         36
  C:2C4DH         LINE#         37
  C:2C50H         LINE#         38
  C:2C5EH         LINE#         39
  C:2C63H         LINE#         40
  C:2C63H         LINE#         43
  C:2C67H         LINE#         45
  C:2C70H         LINE#         46
  C:2C70H         LINE#         48
  C:2C83H         LINE#         51
  C:2C8BH         LINE#         53
  C:2C8BH         LINE#         54
  -------         ENDPROC       TRACKER_GET_POSITION
  -------         ENDMOD        TRACKER

  -------         MODULE        ?C?FPMUL
  C:0096H         PUBLIC        ?C?FPMUL
  -------         ENDMOD        ?C?FPMUL

  -------         MODULE        ?C?FPDIV
  C:019FH         PUBLIC        ?C?FPDIV
  -------         ENDMOD        ?C?FPDIV

  -------         MODULE        ?C?FPCMP
  C:023EH         PUBLIC        ?C?FPCMP
  C:023CH         PUBLIC        ?C?FPCMP3
  -------         ENDMOD        ?C?FPCMP

  -------         MODULE        ?C?FCAST
  C:02BFH         PUBLIC        ?C?FCASTC
  C:02BAH         PUBLIC        ?C?FCASTI
  C:02B5H         PUBLIC        ?C?FCASTL
  -------         ENDMOD        ?C?FCAST

  -------         MODULE        ?C?CASTF
  C:02F3H         PUBLIC        ?C?CASTF
  -------         ENDMOD        ?C?CASTF

  -------         MODULE        PRINTF
  X:03AFH         PUBLIC        ?_PRINTF?BYTE
BL51 BANKED LINKER/LOCATER V6.22.4.0                                                  05/10/2024  15:28:54  PAGE 56


  X:03AFH         PUBLIC        ?_SPRINTF?BYTE
  C:11B6H         PUBLIC        _PRINTF
  C:11B0H         PUBLIC        _SPRINTF
  -------         ENDMOD        PRINTF

  -------         MODULE        ?C?FPROUND
  C:0374H         PUBLIC        ?C?FPROUND
  -------         ENDMOD        ?C?FPROUND

  -------         MODULE        ?C?FPCONVERT
  C:03B1H         PUBLIC        ?C?FPCONVERT
  -------         ENDMOD        ?C?FPCONVERT

  -------         MODULE        ?C?FPADD
  C:04BDH         PUBLIC        ?C?FPADD
  C:04B9H         PUBLIC        ?C?FPSUB
  -------         ENDMOD        ?C?FPADD

  -------         MODULE        ?C?FTNPWR
  C:05DEH         PUBLIC        ?C?FTNPWR
  -------         ENDMOD        ?C?FTNPWR

  -------         MODULE        ?C?COPY
  C:06EEH         PUBLIC        ?C?COPY
  -------         ENDMOD        ?C?COPY

  -------         MODULE        ?C?CLDPTR
  C:0714H         PUBLIC        ?C?CLDPTR
  -------         ENDMOD        ?C?CLDPTR

  -------         MODULE        ?C?CLDOPTR
  C:072DH         PUBLIC        ?C?CLDOPTR
  -------         ENDMOD        ?C?CLDOPTR

  -------         MODULE        ?C?CSTPTR
  C:075AH         PUBLIC        ?C?CSTPTR
  -------         ENDMOD        ?C?CSTPTR

  -------         MODULE        ?C?CSTOPTR
  C:076CH         PUBLIC        ?C?CSTOPTR
  -------         ENDMOD        ?C?CSTOPTR

  -------         MODULE        ?C?IMUL
  C:078EH         PUBLIC        ?C?IMUL
  -------         ENDMOD        ?C?IMUL

  -------         MODULE        ?C?UIDIV
  C:07A0H         PUBLIC        ?C?UIDIV
  -------         ENDMOD        ?C?UIDIV

  -------         MODULE        ?C?SIDIV
  C:07F5H         PUBLIC        ?C?SIDIV
  -------         ENDMOD        ?C?SIDIV

  -------         MODULE        ?C?ILDPTR
  C:082BH         PUBLIC        ?C?ILDPTR
  -------         ENDMOD        ?C?ILDPTR
BL51 BANKED LINKER/LOCATER V6.22.4.0                                                  05/10/2024  15:28:54  PAGE 57



  -------         MODULE        ?C?ILDOPTR
  C:0856H         PUBLIC        ?C?ILDOPTR
  -------         ENDMOD        ?C?ILDOPTR

  -------         MODULE        ?C?LMUL
  C:088EH         PUBLIC        ?C?LMUL
  -------         ENDMOD        ?C?LMUL

  -------         MODULE        ?C?ULDIV
  C:0919H         PUBLIC        ?C?ULDIV
  -------         ENDMOD        ?C?ULDIV

  -------         MODULE        ?C?SLDIV
  C:31F0H         PUBLIC        ?C?SLDIV
  -------         ENDMOD        ?C?SLDIV

  -------         MODULE        ?C?LNEG
  C:09ABH         PUBLIC        ?C?LNEG
  -------         ENDMOD        ?C?LNEG

  -------         MODULE        ?C?ULCMP
  C:09B9H         PUBLIC        ?C?ULCMP
  -------         ENDMOD        ?C?ULCMP

  -------         MODULE        ?C?ULSHR
  C:09CAH         PUBLIC        ?C?ULSHR
  -------         ENDMOD        ?C?ULSHR

  -------         MODULE        ?C?LSTPTR
  C:09DDH         PUBLIC        ?C?LSTPTR
  -------         ENDMOD        ?C?LSTPTR

  -------         MODULE        ?C?LLDOPTR0
  C:09F7H         PUBLIC        ?C?LLDOPTR0
  -------         ENDMOD        ?C?LLDOPTR0

  -------         MODULE        ?C?LSTXDATA
  C:0A27H         PUBLIC        ?C?LSTXDATA
  -------         ENDMOD        ?C?LSTXDATA

  -------         MODULE        ?C?LSTKXDATA
  C:0A33H         PUBLIC        ?C?LSTKXDATA
  -------         ENDMOD        ?C?LSTKXDATA

  -------         MODULE        ?C?PLDIXDATA
  C:0A64H         PUBLIC        ?C?PLDIXDATA
  -------         ENDMOD        ?C?PLDIXDATA

  -------         MODULE        ?C?PSTXDATA
  C:0A7BH         PUBLIC        ?C?PSTXDATA
  -------         ENDMOD        ?C?PSTXDATA

  -------         MODULE        ?C?CCASE
  C:0A84H         PUBLIC        ?C?CCASE
  -------         ENDMOD        ?C?CCASE

BL51 BANKED LINKER/LOCATER V6.22.4.0                                                  05/10/2024  15:28:54  PAGE 58


  -------         MODULE        ?C?LLDIDATA0
  C:0AAAH         PUBLIC        ?C?LLDIDATA0
  -------         ENDMOD        ?C?LLDIDATA0

  -------         MODULE        ?C?LLDXDATA0
  C:0AB7H         PUBLIC        ?C?LLDXDATA0
  -------         ENDMOD        ?C?LLDXDATA0

  -------         MODULE        ?C?LLDPDATA0
  C:0AC3H         PUBLIC        ?C?LLDPDATA0
  -------         ENDMOD        ?C?LLDPDATA0

  -------         MODULE        ?C?LLDCODE0
  C:0AD0H         PUBLIC        ?C?LLDCODE0
  -------         ENDMOD        ?C?LLDCODE0

  -------         MODULE        ?C?LSTIDATA
  C:0AE0H         PUBLIC        ?C?LSTIDATA
  -------         ENDMOD        ?C?LSTIDATA

  -------         MODULE        ?C?LSTPDATA
  C:0AECH         PUBLIC        ?C?LSTPDATA
  -------         ENDMOD        ?C?LSTPDATA

Program Size: data=56.4 xdata=1082 code=14623
LINK/LOCATE RUN COMPLETE.  0 WARNING(S),  0 ERROR(S)
